:020000040800F2
:1000000098230020A9010008B1010008B3010008ED
:10001000B5010008B7010008B901000800000000A0
:10002000000000000000000000000000BB0100080C
:10003000BD01000800000000BF010008C101000868
:10004000C3010008C3010008C3010008C301000880
:10005000C3010008C3010008C3010008C301000870
:10006000C3010008C3010008C3010008C301000860
:10007000E91B0008C3010008C3010008C301000810
:10008000C3010008C301000849140008C3010008A7
:10009000C3010008C3010008C3010008C301000830
:1000A000C3010008C3010008C3010008C301000820
:1000B000C3010008C3010008C3010008C301000810
:1000C000C3010008C3010008C3010008C301000800
:1000D000C3010008C3010008C3010008C3010008F0
:1000E000C3010008C3010008C301000800F002F8C2
:1000F00000F04AF80AA090E8000C82448344AAF178
:100100000107DA4501D100F03FF8AFF2090EBAE875
:100110000F0013F0010F18BFFB1A43F0010318473B
:10012000B4990000D4990000103A24BF78C878C16F
:10013000FAD8520724BF30C830C144BF04680C60ED
:10014000704700000023002400250026103A28BF35
:1001500078C1FBD8520728BF30C148BF0B60704739
:10016000662906F03A84642900F052800020704726
:100170001FB500F027FC04000020002105F0E2FB81
:10018000E0601FBD10B510BD00F020FD1146FFF767
:10019000EFFF04F073FE00F03EFD03B4FFF7F2FF43
:1001A00003BC00F081FD0000094880470948004772
:1001B000FEE7FEE7FEE7FEE7FEE7FEE7FEE7FEE717
:1001C000FEE7FEE704480549054A064B7047000074
:1001D000F5340008ED000008981D00209823002049
:1001E000981F0020981F00200FB41CB5074B06AACB
:1001F0007B4469460090059800F0CBFB00206946DF
:1002000000F0DAFB1CBC5DF814FB0000C507000021
:100210002DE9F0410646002410687529314616A5DF
:1002200010D0AFF30080002802DA404213A507E0A7
:1002300031688A0701D512A502E0490704D511A546
:10024000012401E0AFF3008000210A2206F1240717
:1002500009E0B0FBF2FCB0FBF2F302FB1C00303013
:1002600078541846491C0028F3D123462A463046C4
:10027000BDE8F04100F020B9000000002D000000B2
:100280002B000000200000002DE9F0474FF0000A8D
:1002900089460446C0F820A02046E1688847002827
:1002A00076D0252806D0D4E901219047206A401C49
:1002B0002062F1E7E168204600258847C4F81CA0C9
:1002C00006460027C4F818A02A2E09D0304604F0AC
:1002D0001FFB38B304EB8708303EC8F8186019E0FC
:1002E00059F8041B204604EB87029161E1688847B6
:1002F000012F064618D1E069002820DA25F02005F4
:100300001DE0D8F8180000EB800006EB4000303804
:10031000C8F818002046E1688847064604F0F8FA55
:100320000028EED1012F0AD02E2E08D12046E168F8
:1003300088477F1C0646022F45F02005C4DBA069D4
:10034000002803DA404245F00105A061E80701D02A
:1003500025F01005B6B1A6F14100192802D82036C3
:1003600045F400654A463146204625604D46FFF774
:10037000F7FE58B1012806D0ED1D25F0070000F169
:10038000080989E704E005F1040985E730468AE7B2
:10039000206ABDE8F08710B5203AC0F00B80B1E8C4
:1003A0001850203AA0E81850B1E81850A0E81850AA
:1003B000BFF4F5AF5FEA027C24BFB1E81850A0E8B3
:1003C000185044BF18C918C0BDE810405FEA827CCD
:1003D00024BF51F8043B40F8043B08BF7047D207E4
:1003E00028BF31F8023B48BF11F8012B28BF20F885
:1003F000023B48BF00F8012B704702F0FF0343EABD
:10040000032242EA024200F002B84FF0000204293F
:10041000C0F0128010F0030C00F01B80CCF1040C33
:10042000BCF1020F18BF00F8012BA8BF20F8022B67
:10043000A1EB0C0100F00DB85FEAC17C24BF00F80D
:10044000012B00F8012B48BF00F8012B70474FF03B
:10045000000200B5134694469646203922BFA0E814
:100460000C50A0E80C50B1F12001BFF4F7AF090720
:1004700028BFA0E80C5048BF0CC05DF804EB890011
:1004800028BF40F8042B08BF704748BF20F8022B54
:1004900011F0804F18BF00F8012B7047704770476C
:1004A000704710B500F092FA006810BD10B5044610
:1004B00000F08CFA046010BD2DE9F0470D46994616
:1004C0009246044600F124080168880604D5E069D4
:1004D00021F01001216000E00120A84201DD471B4E
:1004E00000E00027A1697A1902EB0900081AA0614F
:1004F0002078C00602D42046AFF30080002608E032
:10050000D4E901211AF806009047206A401C761CA5
:1005100020624E45F4DB2078C0060AD52046AFF3B2
:10052000008006E0D4E9012130209047206A401C79
:100530002062381EA7F10107F4DC07E0D4E90121AD
:1005400018F805009047206A401C2062281EA5F17B
:100550000105F3DC2046AFF300802078000602D5C9
:100560000220BDE8F0870120FBE770472DE9FF4F2F
:100570000C461E464FF0FF378BB0D2E90001DDF884
:1005800060800A908A46C1F30A5505B93D460021AC
:1005900008464FF00000BAF1000F00F4400005DA01
:1005A00000EB80004FF4400101EA50004FEA9059FF
:1005B000B9F1010F00DDB9460A9850EA4A000ED0A1
:1005C00044F61050A5F2FF3545432F14B8F1000F43
:1005D0001ED07542291E1EDDC9F100021CE0B8F1D3
:1005E000010F4FF0000001D0302103E0F24305E09D
:1005F0002154401CB042FBDB304600220021215434
:100600000B99C1F80880C1E900200FB0BDE8F08F58
:10061000BD1B6D1CDEE74A4600DA694206A800F001
:100620005FFA06AB93E8070003AB83E80700504688
:100630000A9900F040FB8DE80700A0F500501F3834
:1006400000900398002D0ADD42F21F014A4608443B
:10065000002303A90390684600F0A9FD09E0A0F576
:1006600000504A461F38002303A90390684600F053
:10067000B3FD8DE807000004000C03D04FF0FF30FD
:10068000410800E01046B8F1000F03D000220092AC
:1006900015461EE0751E05D400F09CF930326255F7
:1006A0006D1EF9D5B3460122084302D000227F1CFB
:1006B00004E02078302801D100227F1E002A09970B
:1006C00084D01DE0112D07DA00F084F93032625534
:1006D0006D1C50EA0102F5D1084302D00098C8B160
:1006E0000EE00021681E05E0235C625C6354225426
:1006F000401E491C8142F7DBAB46A81B401E0990F7
:10070000002004F80B000B98099AC0F80880C0E993
:10071000002B7AE711264FF0000857E72DE9F04F3C
:1007200088460446D21D22F0070191B0D1E90001AC
:10073000CDE90A0103F0B0FD02460B98C00F01D0CD
:100740002D2007E02068810701D52B2002E0202121
:1007500001EAC000032A099001D0072A05DB0346FD
:100760004146204600F07CF90BE12078800601D557
:10077000E06900E00620B8F1650F814606D0B8F1C7
:10078000660F18D0B8F1670F70D131E00020B9F1D1
:10079000110F009001DB112301E009F101030AAA06
:1007A00001A90CA8FFF7E2FEDDE90C70002609F1B3
:1007B0000105834647E001204B4600904FF000477B
:1007C0000AAA01A90CA8FFF7D1FEDDE90DB00C992A
:1007D0005D46002610B909F101000D18B9EB0500BE
:1007E00003D4C0F1FF3609F10105A5EB09002BE0A8
:1007F000B9F1010F01DA4FF001090020B9F1110F31
:100800000090484601DD112300E003460AAA01A931
:100810000CA8FFF7ABFEDDE90C704D4600268346C1
:10082000207800070AD4AB4500DA5D4601A8012D07
:1008300004DD411911F8011C302907D04F4502DAB7
:1008400017F1040F04DA012082460FE06D1EEEE777
:10085000002F02DCED1B3E4403E0781CA84200DDC3
:100860007D1CB81B00F1010A4FF0004720780007FB
:1008700003D4AA4501DB4FF0FF3A0021B7F1004F46
:100880000DF143088DF8431024D002202B23002FB4
:1008900001DA7F422D230A21021EA0F1010000DCB3
:1008A0005FB197FBF1FC97FBF1F201FB1C7C174653
:1008B0000CF1300C08F801CDEEE7A8F1010003704F
:1008C0002188090501D5452100E06521A0F1010835
:1008D00000F8011C09980FA9A1EB0807FF1D00B142
:1008E0000120411901EBEA70A1693844081A401E41
:1008F000A0612078C00602D42046AFF3008009989A
:1009000028B1D4E901219047206A401C2062207858
:10091000C00622D52046AFF300801EE0002E04DB87
:10092000B34502DD01A8805D00E03020D4E901215B
:100930009047206A401C2062761CAAF101005FEA01
:10094000000A0AD100F03EF8C0680168405CD4E9B2
:1009500001219047206A401C2062281EA5F1010554
:10096000DCDC07E0D4E9012118F8010B9047206A8C
:10097000401C2062381EA7F10107F3DC2046AFF3CC
:100980000080032011B041E601694A1C0261087829
:10099000704700B58FB0CDE90131002105910549BF
:1009A0007944CDE9031011466846FFF76DFC0FB09E
:1009B00000BD0000E5FFFFFF0A6802F8010B0A60B6
:1009C0007047000000487047581D002000487047DD
:1009D000381D002030B5B0F10A024FEA900E71F1D7
:1009E00000034EEA817EB0EB0E0061EB91014FEA0D
:1009F000101E4EEA017E10EB0E0041EB11114FEA82
:100A0000102E4EEA016E10EB0E0041EB11214FEA61
:100A1000104E4EEA014E10EB0E0041EB1141401812
:100A200041F100014FEAD00040EA41704FEAD101A4
:100A300010EB80054FEA810444EA907444EB010412
:100A40006D1944EB0404521BA3414FF0000348BF4F
:100A50000A3200D530BD401C41F1000130BD00001C
:100A60002DE9F0411F46044603260168072A01F4D8
:100A7000006004DB08B116A505E016A503E008B187
:100A800015A500E015A521F010002060A069C01E8A
:100A9000A0610FB1401EA0612046AFF300804FB1AE
:100AA000D4E9012138469047206A401C2062C01CCE
:100AB000206206E0206AFAE7D4E9012115F8010B6B
:100AC0009047761EF8D22046AFF30080BDE8F08153
:100AD0004E414E006E616E00494E4600696E6600E2
:100AE0002DE9F047814616468AB0354878440DC84E
:100AF0008DE80D0032487844801C03AC0DC884E8B2
:100B00000D0041F69B300844372190FBF1F290FB39
:100B1000F1F5A5F1800501FB12041B3C02D56442EE
:100B2000012000E00020DFF898A080460027FA446A
:100B3000AAF1BE0A0EE0E0070AD03246684607EB8B
:100B4000470101230AEB810100F046FB8DE8070015
:100B500064107F1C002CEED1194F7F44AE3F19E08A
:100B6000E80715D007EB04100DF1180A90E80E0005
:100B70008AE80E00C068F04201D198190890324608
:100B8000012306A903A800F027FB03AB83E80700B5
:100B90006D10641C002DE3D14FF00103324669460D
:100BA000B8F1000F03A802D000F001FB01E000F053
:100BB00013FBC9E90001C9F808200AB0BDE8F087B5
:100BC000CC8F000000487047381D00207546FFF7A5
:100BD000F9FFAE4605006946534620F007008546FA
:100BE00018B020B5FFF7EEFABDE820404FF0000640
:100BF0004FF000074FF000084FF0000B21F0070105
:100C0000AC46ACE8C009ACE8C009ACE8C009ACE847
:100C1000C0098D46704710B50446AFF300802046EA
:100C2000BDE81040FFF7B9BA4FF0013C50F8042B73
:100C300051F8043B9A4221D1A2EB0C03934313EAEF
:100C4000CC1317D150F8042B51F8043B9A4215D11C
:100C5000A2EB0C03934313EACC130BD150F8042BF3
:100C600051F8043B9A4209D1A2EB0C03934313EAD7
:100C7000CC13DBD04FF00000704700BFD01A01BA90
:100C8000B1FA81F101F0180122FA01F0CB40C1F173
:100C90002001DBB2C0B2C01A2CFA01F3D11A914381
:100CA00011EAC311E6D1704701491820ABBEFEE737
:100CB0002600020070475FEA400C08BF91F0000F69
:100CC0004FEA8C234FEAC12243EA51514FEA1C50AC
:100CD00018BF00F5F0404FEA300018BF41F0004166
:100CE0005FEA6C5C00F02980BCF1FF3F08BF40F078
:100CF00080407047130C06BF12044FF0100C4FF0E9
:100D0000000C130E04BF12020CF1080C130F04BFE9
:100D100012010CF1040C930F04BF92000CF1020CB1
:100D2000D30F04BF52000CF1010C11464FF000022A
:100D3000A0F11F00A0EB0C00704711F0004F08BF9E
:100D4000704731F000413FF4D5AF0B0C06BF0904EA
:100D50004FF0100C4FF0000C0B0E04BF09020CF109
:100D6000080C0B0F04BF09010CF1040C8B0F04BF1E
:100D700089000CF1020CCB0F04BF49000CF1010CEF
:100D8000CCF12003A0EB0C0022FA03F302FA0CF2E0
:100D900041EA030100F10100704720F07F4C80EA36
:100DA000030023F07F47ACEB070303F57C5300F00F
:100DB000004003F1FF032DE980494FEA154B09B4C8
:100DC0004FEA144325EA0B4E24EA03480FF20426A7
:100DD00006EB132749083E785FEA320203FB0667F9
:100DE000C7F5000707FB06F64FEA54374FEAD64629
:100DF00006F1020607FB066CCCF1005C4FEA1C47CB
:100E00002CEA074C07FB06F40CFB06F504EB154631
:100E10004FEA961634BF00204FF000404FEAD1371A
:100E200006FB07FC4FEA1C4C0CFB0BF7D21B03FB29
:100E30000CF761EB07010CFB0EF7B0EB074072EB10
:100E400017420CFB08F734BFA2EB0742B2EB074294
:100E500061EB17414FEA0C444FEA910706FB07FC90
:100E60004FEA1C4C0CFB0BF7B0EBC74072EB573250
:100E700003FB0CF734BFA2EBC742B2EBC74261EBF6
:100E800057310CFB0EF7B0EBC70072EB57720CFB3F
:100E900008F734BFA2EBC702B2EBC70261EB577190
:100EA000039F4FEA816141EA921104EBCC044FEABF
:100EB000D1374FEA826206FB07FC42EA90124FEA02
:100EC00080604FEA1C4C0CFB0BF7D21B03FB0CF7AA
:100ED00061EB07010CFB0EF7B0EB074072EB17421A
:100EE0000CFB08F734BFA2EB0742B2EB074261EB01
:100EF00017414FEA8C554FEA910704EB9C2406FBFF
:100F000007FC4FEA1C4C0CFB0BF7B0EBC74072EB35
:100F1000573203FB0CF734BFA2EBC742B2EBC74218
:100F200061EB57310CFB0EF7B0EBC70072EB577259
:100F30000CFB08F734BFA2EBC702B2EBC70261EBB0
:100F4000577115EB4C254FEA816141EA92114FEA46
:100F500082624FEAD13742EA901206FB07FC44F165
:100F600000044FEA80604FEA1C4C0CFB0BF7D21BCD
:100F700003FB0CF761EB07010CFB0EF7B0EB07402E
:100F800072EB17420CFB08F734BFA2EB0742B2EB3F
:100F9000074261EB174115EB1C154FEA813141EA1D
:100FA00092414FEA823242EA90424FEA80304FEA61
:100FB0000C7644F1000448EA03434EEA0B484FF034
:100FC000000EB2EB080C71EB030724BF62463946F2
:100FD0004EEB0E0E4FF0000B0018524149414BEB07
:100FE0000B0BB2EB080C71EB03077BF1000B24BF7A
:100FF000624639464EEB0E0E4FF0000B0018524180
:1010000049414BEB0B0BB2EB080C71EB03077BF187
:10101000000B24BF624639464EEB0E0E51EA020722
:1010200018BF46F0010616EB0E7655F1000254F19A
:10103000000103D5BDE88901BDE80088BDE889014C
:10104000BDE80048B619524141EB0101A3F101038B
:10105000704780807F7E7D7C7B7A79787776767525
:101060007473727171706F6E6E6D6C6C6B6A6A699D
:101070006868676666656464636362616160605F37
:101080005F5E5E5D5D5C5C5B5B5A5A5959585857B0
:101090005756565555555454535352525251515018
:1010A00050504F4F4F4E4E4D4D4D4C4C4C4B4B4B6B
:1010B0004A4A4A49494948484847474747464646B1
:1010C00045454544444444434343434242424241EC
:1010D0004141002B9C4630D477002BD01CB54FEA01
:1010E000370703B44FF010004FF01001BAF1000FB2
:1010F00006D0BCF1000FDCBF40F0080040F0080152
:101100004FF000000FBCBDE810400BF1010BBBF12C
:10111000010F08BF5FEA170722BF12F1010211F1A8
:1011200001014FF0004143F1000300F0004043EAA9
:1011300000007047F9D35708D0E746EA064613F196
:10114000400F4FEA16461FDD13F1200FDFBF164395
:101150000A46002120335B42BED0C3F1200746EA95
:10116000064602FA07F74FEA164646EA0706C3F1B3
:10117000200722FA03F201FA07F721FA03F14FF0F0
:10118000000342EA0702A7E746EA020646EA0646E5
:101190004FEA164646EA0106BCBF46EA0646360C4A
:1011A0004FF000034FF000024FF0000194E72DE9EB
:1011B000804C9A46934670B491E8380007C831EAEB
:1011C000400C48BF34EA430C03D5FFF7E6FDFFF7B8
:1011D00080FFF0BCBDE8008C2DE9804C9A46934618
:1011E00070B491E8380007C810F0804F08BF13F0C2
:1011F000804F03D100F005F8FFF76BFFF0BCBDE8AE
:10120000008C20F07F4780EA030023F07F4C07EB3F
:101210000C03A3F57C5300F00040A3F1FE0392F011
:10122000000F00F0B38095F0000F00F077802DE9FB
:1012300001494FEA11404FEA144621EA004800FBF9
:1012400006FC24EA064708FB06F607FB08F800FB45
:1012500007F718EB06484CEB164C4FEA124B18EB0D
:1012600007484FEA15464CEB174022EA0B4E0BFBA2
:1012700006FC25EA06470EFB06F607FB0EFE0BFBF7
:1012800007F71EEB064E4CEB164C4FF000061EEB1C
:10129000074E4CEB174B18EB0B0840F1000018EB16
:1012A0000E0B58EB000840F100008F1A4FF00001C0
:1012B0003CBFC943661B14BFB5EB040C00213CBF07
:1012C000C943F61B4FEA17444EEA8E0E27EA04453F
:1012D0004FEA1C4704FB07622CEA074C05FB07F7A3
:1012E0000CFB05F604FB0CFC16EB074642EB174221
:1012F00016EB0C4642EB1C421BEB060658EB0202B7
:10130000414146EA9E0601D5BDE80189B619524120
:1013100041EB0101A3F10103BDE801894FEA144546
:101320004FEA114724EA054621EA074C05FB07F47A
:1013300006FB07F70CFB06F105FB0CFC11EB074164
:1013400044EB17444FEA124711EB0C4144EB1C44A9
:1013500022EA074C05FB07F206FB07F70CFB06F633
:1013600005FB0CFC16EB074642EB174216EB0C464E
:1013700042EB1C456A1854F1000148BF7047B6198A
:10138000524141EB0101A3F10103704795F0000FB9
:1013900037D04FEA11424FEA144721EA024624EAC5
:1013A000074C02FB07F106FB07F70CFB06F402FBF8
:1013B0000CFC14EB074441EB17414FEA154714EBC3
:1013C0000C4441EB1C4125EA074C02FB07F506FBE8
:1013D00007F70CFB06F602FB0CFC16EB074645EB89
:1013E000174516EB0C4645EB1C42121951F1000152
:1013F00048BF7047B619524141EB0101A3F1010307
:1014000070474FEA14454FEA114724EA054621EA9E
:10141000074C05FB07F106FB07F70CFB06F24FF044
:10142000000605FB0CFC12EB074241EB174112EBE7
:101430000C4251EB1C4148BF7047921841EB01012F
:10144000A3F101037047000010B54FF4A0710648E6
:1014500000F048F8012806D101F066F84FF4A071B9
:10146000014800F018F810BD002401400A46002190
:101470004168024B1940114341607047FFFD3FFF37
:101480000A460021416821F01F0111434160704765
:1014900041628262704700220A12D34303607047A0
:1014A00021B1826842F00102826003E0826822F08A
:1014B000010282607047014600208A6802F004023F
:1014C0000AB1012000E0002070470146C86C80B2DC
:1014D00070470246002013680B400BB1012000E06A
:1014E0000020704770B502460020002300240B1234
:1014F0005568CEB205EA060415681D4015B10CB159
:10150000012000E0002070BD014600208A6802F042
:1015100008020AB1012000E00020704710B5002346
:10152000CBB21AB144681C43446002E044689C4357
:10153000446010BD30B502460020002350680F4CB7
:1015400020400D790C6844EA0524204350609068DF
:101550000B4C2040D1E902542C434D7944EA450418
:1015600020439060D06A20F470000C7C641EE4B2CA
:10157000234340EA0350D06230BD0000FFFEF0FF7D
:10158000FDF7F1FFF0B504460D4600200021092DBE
:1015900011DDE068A5F10A0606EB4607072606FA04
:1015A00007F18843A5F10A0606EB460603FA06F1A1
:1015B0000843E0600CE0206905EB4507072606FAC2
:1015C00007F1884305EB450603FA06F1084320615D
:1015D000072A0FDA606B561E06EB86071F2606FAEF
:1015E00007F18843561E06EB860605FA06F1084306
:1015F000606322E00D2A0FDA206BD61F06EB860708
:101600001F2606FA07F18843D61F06EB860605FA61
:1016100006F10843206310E0E06AA2F10D0606EB34
:1016200086071F2606FA07F18843A2F10D0606EB8E
:10163000860605FA06F10843E062F0BD816841F0D4
:1016400008018160704721B1826842F4A002826083
:1016500003E0826822F4A00282607047816841F052
:101660000401816070470021016001714171816056
:10167000C1600121017470470146002901DA484226
:1016800070470846FCE700002DE9F04F8FB0FE4898
:10169000007818B101200FB0BDE8F08F072003F0EB
:1016A000D5F9064604F043FC04460D46F7480068A9
:1016B00000EB80004FEA4008F548006828B9204652
:1016C000294604F0D7FBF2490860F148006804F0AD
:1016D0002EFC22462B46CDE9080104F0C3FD002272
:1016E000EC4BCDE90A0104F031FACDE90C01E848F0
:1016F000006804F01CFC0646DDE90C2304F06AF9DE
:10170000814604F0B7FBE24908604FF40041E2482B
:1017100000F0BBFC28B9DE480068E0490860012001
:10172000B9E7DB490968DD4A1268881A04F0FFFB53
:1017300004460D46DA48006804F0F9FBCDE90601DD
:10174000062003F083F9019004F0EEFF834604F0D5
:101750007FFE0646D34AD44B04F0F8F9D34AD44B63
:10176000CDE9020104F0F2F9CDE90401DDE9062337
:1017700004F084FD81460022CE4B04F0E7F9CDE968
:101780000A01C748006804F0D2FBCDE90801DDE991
:101790000A2304F01FF9CDE90C0104F06BFBC049EA
:1017A00008600022C44B2046294604F027FC064668
:1017B00004F060FBC149086008460068B0F5617F2D
:1017C0000DDD0846006804F0AFFF0746BC4904F091
:1017D000C3FF064604F08CFFB8490860DDE1B74856
:1017E000006840F2523188420DDDB448006804F0D0
:1017F0009BFF0746B34904F0AFFF064604F078FFAD
:10180000AE490860C9E1AD480068B0F5487F0DDD1C
:10181000AA48006804F088FF0746AB4904F09CFF23
:10182000064604F065FFA5490860B6E1A3480068D4
:1018300040F2EE2188420EDDA048006804F074FFFB
:1018400007464FF07C5104F087FF064604F050FF36
:101850009A490860A1E199480068B0F52F7F0DDD35
:101860009648006804F060FF0746984904F074FF4A
:10187000064604F03DFF914908608EE18F480068FC
:1018800040F28A2188420DDD8C48006804F04CFF4C
:1018900007468F4904F060FF064604F029FF874998
:1018A00008607AE185480068B0F5167F0DDD834851
:1018B000006804F039FF0746864904F04DFF0646EC
:1018C00004F016FF7D49086067E17C480068B0F5C8
:1018D0000C7F0DDD7948006804F026FF07467E493D
:1018E00004F03AFF064604F003FF7449086054E12F
:1018F00072480068B0F5027F0DDD7048006804F0A2
:1019000013FF0746754904F027FF064604F0F0FE72
:101910006A49086041E169480068B0F5EE7F0DDB77
:101920006648006804F000FF07466D4904F014FFA4
:10193000064604F0DDFE614908602EE15F4800685C
:10194000B0F5D77F0DDD5D48006804F0EDFE074679
:10195000644904F001FF064604F0CAFE57490860D6
:101960001BE156480068B0F5C87F0DDD534800689C
:1019700004F0DAFE07465C4904F0EEFE064604F089
:10198000B7FE4E49086008E14C480068B0F5AF7FEB
:101990000DDD4A48006804F0C7FE0746534904F0CD
:1019A000DBFE064604F0A4FE44490860F5E0434827
:1019B0000068B0F59E7F0DDB4048006804F0B4FE7F
:1019C00007464B4904F0C8FE064604F091FE3B4929
:1019D0000860E2E039480068B0F58A7F0DDB3748DF
:1019E000006804F0A1FE0746424904F0B5FE064631
:1019F00004F07EFE31490860CFE030480068F028EE
:101A00000DDD2E48006804F08FFE07463A4904F0C9
:101A1000A3FE064604F06CFE28490860BDE0274896
:101A20000068C8280DDD2548006804F07DFE0746E3
:101A3000324904F091FE064604F05AFE1F49086040
:101A4000ABE01E480068A5280DDD1C48006804F0C6
:101A50006BFE07462A4904F07FFE064604F048FE66
:101A60001649086099E0154800687D284EDD134846
:101A7000006804F059FE0746224904F06DFE064650
:101A800004F036FE0D493FE01F0000200400002056
:101A90005400002000004940001001405800002080
:101AA000500000205DFE43FAED8B2040CDCCCCCC25
:101AB000CCCCF43F000024400000E0BF4C000020EC
:101AC000D7A3F03E8FC2F53E48E1FA3E5C8F023F5D
:101AD000B81E053F14AE073F713D0A3FCDCC0C3F09
:101AE000295C0F3F85EB113FBC74133F3D0A173F44
:101AF0009A99193F9CC4203FAE47213FC3F5283F28
:101B00001F852B3F3333333F086046E02F48006882
:101B10006E280DDD2D48006804F006FE07462C49AE
:101B200004F01AFE064604F0E3FD2849086034E09C
:101B30002648006858280DDD2448006804F0F4FDAC
:101B40000746244904F008FE064604F0D1FD1F496B
:101B5000086022E01D4800684B280DDD1B48006826
:101B600004F0E2FD07461C4904F0F6FD064604F0C9
:101B7000BFFD1649086010E01448006800280CDD1D
:101B80001248006804F0D0FD0746144904F0E4FD53
:101B9000064604F0ADFD0D4908601148006828B103
:101BA0004FF400410F4800F070FA08B9012072E5C7
:101BB000404604F0BCF9064622462B4604F01CFBC6
:101BC00001D2012067E5002065E500004C000020FF
:101BD0007B142E3F3333333FF6281C3F0AD7233F75
:101BE000040000200010014010B5294800780028AA
:101BF0004AD00021274801F0BDFC0021264800F012
:101C00006DF8002124483C3800F068F80021224893
:101C1000503800F063F82148007840B120481E4950
:101C20006C3988671F48C8631F48886207E01F48EF
:101C300019496C3988671E48C8631E4888621E4867
:101C4000008815496C3908671B48008848631A48A2
:101C500000880862194800880E492831088001214F
:101C60000D4800F03BF801210B483C3800F036F8F5
:101C700001210948503800F031F80121054801F0F0
:101C800079FC002002490870202000F019F810BDEE
:101C90002C000020002C01406C0002407600002047
:101CA0003C15002040110020440D00204809002070
:101CB0004C050020500100202800002024000020B6
:101CC00000F0805111B10349086001E00249486009
:101CD00070470000040402400000024021B1026885
:101CE00042F00102026004E002684FF6FE731A40FF
:101CF000026070471AB103680B43036002E0036897
:101D00008B430360704710B50022026847F6F073FA
:101D10009A430C6A8B6823430C6923434C69234321
:101D20008C692343CC6923434C6A23438C6A234345
:101D30001A430260CB6843600B6883604B68C360E2
:101D400010BD0021016041608160C160016141619D
:101D50008161C161016241628162704710B50446D0
:101D60000121094800F09CF908480460002001F0B6
:101D7000C7FA0821044800F091F9002004490860DE
:101D80000449087010BD0000000801403000002028
:101D90003C0000201F00002030B5044604254FF40D
:101DA000302000F0B7F80546042D17D10C48006923
:101DB00040F002000A49086108464461006940F0A9
:101DC000400008614FF4302000F0A4F805460448B4
:101DD000006941F6FD71084001490861284630BD9F
:101DE0000020024004200B49C96801F0010109B13B
:101DF00001200EE00749C96801F0040109B1022081
:101E000007E00449C96801F0100109B1032000E0AE
:101E1000042070470020024010B5102000F00EF89A
:101E2000022000F05FF810BD0348006940F0800018
:101E30000149086170470000002002400549096817
:101E400021F01001034A1160114609680143116035
:101E5000704700000020024078B506460C46042575
:101E600000200090E80200F055F80546042D24D12A
:101E70001348006940F00100114908613480E8020C
:101E800000F048F80546042D10D1B01C0090200C3D
:101E900000990880E80200F03DF80546084800690E
:101EA00041F6FE7108400649086106E004480069F1
:101EB00041F6FE71084002490861284678BD0000DD
:101EC0000020024010B5064B0146002205E01C68C8
:101ED0000C601B1D091D541CA2B2032AF7D310BDB0
:101EE00000FC000801460020034A106800F038009A
:101EF0000843106070470000002002400248034978
:101F0000486003484860704723016745002002404D
:101F1000AB89EFCD00B502460423FFF763FF03460C
:101F200003E0FFF75FFF0346521E012B01D1002A99
:101F3000F7D102B90523184600BD00002DE9F04194
:101F40000446FFF7DBFF0A48FFF726FF2546084E49
:101F5000002707E030462968FFF77EFF2D1D361D5C
:101F6000781C87B2032FF5D3FFF75EFFBDE8F08141
:101F700000FC00082DE9F041024600250026002063
:101F800000230024002791F803C00CF00F0591F8FE
:101F900003C00CF0100CBCF1000F03D091F802C08C
:101FA0004CEA050591F800C0BCF1000F31D014686F
:101FB00000202BE04FF0010C0CFA00F3B1F800C048
:101FC0000CEA03069E4220D183004FF00F0C0CFA5E
:101FD00003F7BC4305FA03FC4CEA040491F803C080
:101FE000BCF1280F06D14FF0010C0CFA00FCC2F82E
:101FF00014C00AE091F803C0BCF1480F05D14FF0BE
:10200000010C0CFA00FCC2F810C0401C0828D1D307
:102010001460B1F800C0BCF1FF0F34DD546800203B
:102020002EE000F1080C4FF0010808FA0CF3B1F8AB
:1020300000C00CEA03069E4221D183004FF00F0C32
:102040000CFA03F7BC4305FA03FC4CEA040491F8CC
:1020500003C0BCF1280F05D100F1080C08FA0CF8F8
:10206000C2F8148091F803C0BCF1480F07D100F109
:10207000080C4FF0010808FA0CF8C2F81080401C58
:102080000828CED35460BDE8F08102460020936852
:102090000B400BB1012000E0002070474161704708
:1020A000016170474FF6FF710180022181700421A8
:1020B000C170704770B5044600F010FF0546FFF789
:1020C000E3FA28B14FF480511848FFF7DEFF18B942
:1020D0001E250A2002F0D4FC1548164A126820F882
:1020E000125014480068401C1249086008460068F5
:1020F00011490968884202DB00200E490860002669
:10210000002008E014B10A4A22F81050084931F8BA
:1021100010100E44401C084909688842F2DB1CB9C3
:102120000548006896FBF0F5284670BD000C01409C
:10213000C4000020340000200000002070B50246DA
:102140000024002500230020958A138B1B0445EAF8
:10215000030626F07F4404EA01068E4201D10120E5
:1021600000E0002070BD21B1028842F0010202802F
:1021700004E002884FF6FE731A40028070470000A8
:102180002DE9F04385B004460D460026B1460427EC
:10219000DFF8CC80A6884FF6C0700640684600F095
:1021A000D9FADDF808802F48B8FBF0F01FFA80F963
:1021B00046EA0906A68020884FF6FE710840208076
:1021C00000262949286888420CD828684000B8FBB6
:1021D000F0F087B2042F00DA04273E4309F1010032
:1021E000208427E0E8884BF6FF71884206D12868F2
:1021F00000EB4000B8FBF0F087B209E0286800EB84
:10220000C00101EB0010B8FBF0F087B247F4804743
:10221000C7F30B0008B947F0010747F40040064335
:102220004FF4967009FB00F04FF47A7190FBF1F0D7
:10223000401C2084A683208840F00100208026884E
:102240004FF6F5300640A888698908430643268082
:10225000A88929890843208105B0BDE8F0830000E2
:1022600000127A0040420F00A08601004CF6CC40DC
:10227000014908607047000000300040014600201E
:10228000034AD2680A400AB1012000E000207047EA
:10229000003000404AF6AA2001490860704700005B
:1022A00000300040014948607047000000300040A5
:1022B0000149886070470000003000400149086013
:1022C000704700000030004008B56846FFF7EAFE9E
:1022D00010208DF803000F20ADF8000001208DF8CC
:1022E000020069461648FFF745FE10208DF80300EE
:1022F0004FF46040ADF8000001208DF802006946FF
:102300001048FFF737FE48208DF803004FF4805047
:10231000ADF8000003208DF8020069460A48FFF777
:1023200029FE48208DF803004FF46070ADF80000DE
:1023300001208DF8020069460348FFF71BFE08BD27
:102340000008014000100140000C01401CB501A82C
:10235000FFF7A8FE14208DF807004FF4E060ADF8F9
:10236000040001208DF8060001A90A48FFF702FECB
:102370006846FFF797FE14208DF803004FF4604085
:10238000ADF8000001208DF8020069460248FFF711
:10239000F1FD1CBD00080140000C01401FB5FFF716
:1023A0003BFD6846FFF78EFD01200A490870282092
:1023B000094908600949086000200949087009496D
:1023C0000870094908703C20084908600120084944
:1023D00008701FBD20000020100000201400002005
:1023E00075000020600000201C000020000000207C
:1023F0001D00002070B5002100230F22C47804B313
:10240000154C246804F4E064C4F5E064210AC1F1C9
:102410000403CA40447804FA03F184781440214349
:1024200009010E4C0678A155047804F01F0501241B
:10243000AC4005786D11AD0005F1E025C5F800410F
:1024400009E0047804F01F050124AC40044D06782F
:10245000761145F8264070BD0CED00E000E400E088
:1024600080E100E070B50024002544E0FFF712FF92
:10247000032001F051FB4FF480512648FFF705FE81
:10248000A0B9641C01212448FFF70AFE2348006814
:10249000962805DD21490968A1F10F0000F070FDC3
:1024A000502C1CDD0120FFF759FC28E01B48006878
:1024B0001B490968884204DA18480068C01C00F00B
:1024C0005FFD142002F0DCFA01211348FFF7E6FD5E
:1024D0001248006812490968884200DB70BD01F0AB
:1024E000BBFA38B1012000F00BFF4FF4967002F0F8
:1024F000C7FA04E06D1C40F2DC508542B6DB00BF39
:102500000848006818B901210348FFF7C7FD00BF5C
:10251000E4E70000000C0140000801403C000020FE
:1025200040000020300000202DE9F041062002F09C
:102530008DFA0646304603F0FAFC0446214A224B47
:1025400003F05AFE15D2062002F080FA074603F087
:10255000EEFC04461B4A1C4B03F04EFE30D2022018
:10256000FFF7FCFB00224FF4A0711848FEF7D6FFDE
:1025700026E0304603F0DBFC0446154A154B03F019
:102580003BFE04D208211448FFF78AFD18E03046CC
:1025900003F0CDFC0446114A114B03F0F3FC0FD2BB
:1025A000062002F053FA074603F0C1FC04460B4A2A
:1025B0000B4B03F0E7FC03D208210748FFF76EFD41
:1025C000BDE8F08192ED7C3FB58FA840002401402A
:1025D000D44D6210D8F9A54000080140EC51B81E56
:1025E000A501A540F8B501213948FFF759FD0024A0
:1025F00002213748FFF754FD17E00F2C00DD20E0E3
:10260000204604EBD0714910A4EB410121B901210E
:102610002F48FFF745FD03E001212D48FFF73EFD60
:102620004FF4967002F02CFA641C062002F00EFAA9
:10263000074603F07CFC0546264A274B03F0A2FC24
:10264000DBD300BF01212248FFF728FD00202349EA
:10265000086004211E48FFF723FD642002F010FAF1
:1026600008211B48FFF71CFD4FF4FA7002F008FA2E
:1026700008211748FFF712FD02211548FFF70EFD4C
:102680004FF4967002F0FCF9062002F0DFF90746DD
:1026900003F04DFC0546124A124B03F0ADFD15D276
:1026A0000120114908703521084600F04BFA0FA0AF
:1026B0000068009001220E49684600F05BFB00F0C4
:1026C0006FFB4FF4FA6002F0DBF900BFF8BD0000C9
:1026D0000008014067666666A628A040300000201A
:1026E000E4A59BC46054A5401E0000205046430052
:1026F0007800002029B1064A52690243044B5A610E
:1027000004E0034A52698243014B5A61704700005A
:102710000010024029B1064AD2690243044BDA6133
:1027200004E0034AD2698243014BDA61704700003A
:102730000010024029B1064A92690243044B9A6193
:1027400004E0034A92698243014B9A61704700009A
:102750000010024030B500210022002400232D4D3E
:102760006D6805F00C0121B1042905D0082923D199
:1027700005E0294D056022E0274D05601FE0254D4D
:102780006D6805F47012234D6D6805F480340225E0
:1027900005EB92421CB9214D554305600BE01D4DE0
:1027A0006D6805F400351DB11C4D5543056002E010
:1027B000194D5543056002E0174D056000BF00BF8D
:1027C000144D6D6805F0F0010909154D6B5C056845
:1027D000DD4045600F4D6D6805F4E061090A104D5C
:1027E0006B5C4568DD4085600A4D6D6805F460519D
:1027F000C90A0B4D6B5C4568DD40C560054D6D68D1
:1028000005F44041890B074D6B5CC568B5FBF3F5DA
:10281000056130BD0010024000127A0000093D0041
:102820009C000020AC0000201CB51021112000F0FD
:1028300089F913A103C9CDE90001012212496846B3
:1028400000F098FA00F0ACFA01201049087014204A
:102850000F4908601E200F49086000200E490870CB
:102860000E4908700E4908703C200E49086001208E
:102870000D4908700D49087000F0BEFA1CBD00003B
:102880004385706F63210000880000202000002035
:1028900010000020140000207500002060000020BF
:1028A0001C000020000000201D00002074000020FB
:1028B0002DE9FF4F04460D4616461F46802C00DBCF
:1028C0007F24802E00DB7F26402D00DB3F25402F1C
:1028D00000DB3F27B44201DA301B00E0A01B0FFAF7
:1028E00080FBBD4201DA781B00E0E81B0FFA80F99B
:1028F000B44201DA012001E04FF0FF300390BD4205
:1029000001DA012001E04FF0FF300290CB4501DDFC
:10291000594601E0C9F10001084601EBD0714910A8
:1029200009B20191BBF1000F1ED1AF4204DA0FFAD8
:1029300087FA2F461FFA8AF5A64204DA0FFA86FABA
:1029400026461FFA8AF40FFA85F809E01FFA88F183
:1029500020460D9A00F052F808F101000FFA80F8B5
:10296000B845F3DDBDE8FF8FB9F1000F1DD1AF42CF
:1029700004DA0FFA87FA2F461FFA8AF5A64204DA1C
:102980000FFA86FA26461FFA8AF40FFA84F809E04D
:102990001FFA88F029460D9A00F030F808F101007E
:1029A0000FFA80F8B045F3DDDCE722E02946204647
:1029B0000D9A00F023F8B44202D1BD4200D119E0D3
:1029C00001980090CBF100010098884207DD019842
:1029D000A0EB090000B201900398204484B2009853
:1029E000484506DA0198584400B2019002982844FC
:1029F00085B2DBE700BF00BFB4E70000F0B50346D7
:102A00001446802B01DA402900DBF0BD2148007913
:102A100020B10CB9012000E000200446012C1CD19B
:102A2000CD1701EB5575ED1003EBC5151A4E755D0D
:102A30000A46CE1701EB5676F610A1EBC607012623
:102A4000BE403543EEB20846CD1701EB5575ED108B
:102A500003EBC515104F7E551AE0CD1701EB5575E8
:102A6000ED1003EBC5150C4E755D0A46CE1701EB54
:102A70005676F610A1EBC6070126BE40B5430846C0
:102A8000CE1701EB5676F61003EBC616024FBD5576
:102A900000BFBAE790000020381900202DE9F84166
:102AA00004460D4616461F46DDF81C80802C01DAD0
:102AB000402D01DBBDE8F881A019802802DBC4F1BC
:102AC000800086B2E819402802DBC5F1400087B2D9
:102AD000A01982B22B4629462046CDF80080FFF788
:102AE000E7FEE81983B2A01982B2E81981B2204644
:102AF000CDF80080FFF7DCFEE81983B222462946B4
:102B00002046CDF80080FFF7D3FEE9198BB2A1195A
:102B10008AB2A11988B22946CDF80080FFF7C8FE15
:102B200000BFC7E710B504460CB9002000E0FF2045
:102B300002464FF480610248FDF75FFC10BD0000C3
:102B400038190020014A1080518070479000002001
:102B500010B502F089FD012001F092FFAE230022A2
:102B60007821584802F034FE20230022782155486D
:102B700002F02EFE102300227821524802F028FE97
:102B8000B023002278214F4802F022FEC823002201
:102B900078214C4802F01CFE00231A46782149484F
:102BA00002F016FE102300227821464802F010FEA3
:102BB000402300227821434802F00AFE81230022AC
:102BC0007821404802F004FEFF23002278213D488E
:102BD00002F0FEFDA123002278213A4802F0F8FD20
:102BE000A62300227821374802F0F2FDA823002214
:102BF0007821344802F0ECFD3F230022782131484F
:102C000002F0E6FDA423002278212E4802F0E0FD28
:102C1000D323002278212B4802F0DAFD00231A4644
:102C20007821284802F0D4FDD523002278212548B8
:102C300002F0CEFDF02300227821224802F0C8FDE8
:102C4000D923002278211F4802F0C2FD222300224E
:102C500078211C4802F0BCFDDA23002278211948B3
:102C600002F0B6FD122300227821164802F0B0FDD2
:102C7000DB2300227821134802F0AAFD2023002242
:102C80007821104802F0A4FD8D23002278210D4800
:102C900002F09EFD1423002278210A4802F098FDDC
:102CA000AF2300227821074802F092FD0020FFF7B1
:102CB00039FF00F075F800200349088048800120A2
:102CC000487110BD00580040900000202DE9F043ED
:102CD00007460C46904626480088217808448028FC
:102CE00005DA2348408861780844402802DB002048
:102CF000BDE8F083002530E0A7F12000617800FBFB
:102D00000150616831F81090002622E009FA06F0BF
:102D100000F4004058B1164A52882A4491B2144A2D
:102D20001288324490B24246FFF768FE10E0B8F1D4
:102D3000000F01D1012300E000231A460C4B5B88F1
:102D40002B4499B20A4B1B88334498B2FFF756FEC6
:102D5000761C2078B042D9D86D1C6078A842CBD8B8
:102D60000348008821780844014908803846BFE7B5
:102D70009000002070B504460D4616460AE0207803
:102D800032462946FFF7A2FF2178884201D02078F9
:102D900070BD641C20780028F1D12078F8E700008D
:102DA00038B5002420E004F1B000C3B2002278213D
:102DB0000F4802F00DFD00231A4678210C4802F05E
:102DC00007FD102300227821094802F001FD802030
:102DD00000900848802101FB040340227821044828
:102DE00002F026FD601CC4B2082CDCDB38BD0000FC
:102DF00000580040381900202DE9FF412D48007887
:102E000008B9BDE8FF81FFF707F82B4800788DF877
:102E100000002A48008880B2ADF8020027490968FE
:102E2000C1F16D0003F083F806460022244B02F046
:102E30008DFE044603F01EF822490860084600682B
:102E4000442801DB442008601F48008880B2ADF8A8
:102E500004001E48007818B101208DF8060002E039
:102E600000208DF806001A48007818B101208DF86E
:102E7000070002E000208DF807001648007818B11E
:102E800001208DF8080002E000208DF808001248AB
:102E9000007818B101208DF8090002E000208DF8BB
:102EA00009006846FFF74AF800200249087000BF91
:102EB000A7E7000074000020200000201000002080
:102EC0000000F83F000000201400002075000020E2
:102ED000600000201C0000201D00002010B509200B
:102EE00001F0B4FD044640F2B63104FB01F0C11715
:102EF00000EB1151091301F130040948006808B9C9
:102F00000748046006480068201A052190FBF1F08C
:102F1000034909680844024908600846006810BD72
:102F20005C0000206420704770B50020FFF7C2F8F5
:102F30000446FFF7F7FF05460F490968601AFEF7D8
:102F40009BFB022806DC0D490968481BFEF794FB31
:102F50000A2810DD0848046008490968481BFEF784
:102F60008BFB022801DD05480560204600F008F8CB
:102F7000142001F085FD70BD4000002018000020E5
:102F80002DE9F04786B082463948C0F800A039489C
:102F9000007818B136480068642806DC35480078A7
:102FA00090BB33480068A0282FDD3249097859B119
:102FB0002F4909684CF2387292FBF1F1032291FB20
:102FC000F2F101EB410109E0294909682A4A92FB23
:102FD000F1F1032291FBF2F101EB41010846B0F55A
:102FE000FF7F04DD4FF4FF71244A11800BE0234979
:102FF00009881E31814204DC204909881E3981423A
:1030000001DA1E4A108004E0FFE74FF4FF701B490D
:1030100008801A49098801EB4102C2EBC11002F095
:1030200086FF04460D461248006802F080FF804685
:103030000022134B02F08AFDCDE90201114800681D
:1030400002F08CFFCDE90001DDE9022302F07EFDF4
:10305000064622462B4602F079FDCDE9040102F036
:1030600009FF0949086002F043F906B0BDE8F0879E
:103070003C0000201C000020905F01002800002080
:1030800000002440B00000202400002010B500F013
:1030900001F810BD0CB50020019000903348006885
:1030A00040F480303149086000BF3048006800F4C7
:1030B000003000900198401C0190009818B90198C8
:1030C000B0F5A06FF1D12948006800F4003010B1CC
:1030D0000120009001E0002000900098012843D1D9
:1030E0002348006840F01000214908600846006845
:1030F00020F0030008600846006840F00200086005
:103100001A484068194948600846406848600846BF
:10311000406840F4806048600846406820F47C10B5
:1031200048600846406840F4E81048600846006877
:1031300040F08070086000BF0C48006800F000702C
:103140000028F9D00948406820F00300074948608A
:103150000846406840F00200486000BF03484068ED
:1031600000F00C000828F9D10CBD0000001002404E
:10317000002002402DE9F04100205749086000245A
:1031800003E0FEF781FA0646641C40F6B83084423C
:10319000F7DB0120FEF78EFF054604214F48FEF7BE
:1031A0007FFF4FF400514E48FEF778FF4FF4004187
:1031B0004B48FEF775FF01204A490870FFF7B2FE41
:1031C000494908602D20FFF7DBFEFEF70DFD02F0F8
:1031D00051FB01F07DFC01F0D9FF02F057F802F03D
:1031E00023F8142001F04CFC002728246EE0012075
:1031F000FEF760FFA04200DA6AE0641CFFF74AF8BD
:10320000641C012000F088FC38480078012819D19E
:1032100080213748FEF739FFA0B90A2001F030FCC1
:1032200080213348FEF731FF60B9012000F068F8D3
:103230003048007880F001002E490870FFF79AFFAF
:10324000BDE8F0814FF480512948FEF71EFFA0B978
:103250000A2001F015FC4FF480512548FEF715FFB8
:1032600000BB322C05DDE41E01211C48FEF718FFCF
:1032700018E00120FEF772FD14E001211748FEF767
:103280000DFF2046FFF77CFEFEF7FEF938B11A4924
:103290000868C11700EB917104EBA10402E0C8209B
:1032A00001F0EEFB00F0D8FB38B1012000F028F867
:1032B0004FF4967001F0E4FBC2E7104800684FF449
:1032C0007A7191FBF0F8404601F0DAFBAC428EDBFC
:1032D00000BF00BFB4E70000540000200008014018
:1032E000001001407600002018000020200000207F
:1032F000000C0140600000201000002008000020A9
:103300002DE9F047054601206C490870002D5DD07D
:103310006B480068002859DD01224FF4A07169480C
:10332000FEF7FCF800266848046845E0FEF7B2FFA7
:10333000022000F0F1FB2046FFF722FE6348006800
:10334000402800DD00BFFFF7EFF84FF480516048E0
:10335000FEF79BFE38B9761C01215E48FEF7A0FE01
:10336000322E1FDD2AE001215A48FEF797FE062083
:1033700001F06CFB814602F0DAFD0746564A574BD6
:1033800002F000FE0ED251490868C11700EB91719E
:10339000B4EBA10F06DD4D490868C11700EB917130
:1033A000A4EBA104464800684FF47A7191FBF0F752
:1033B000384601F065FB641E2D2CB7DC00BF0022EF
:1033C0004FF4A0713F48FEF7A9F800BF0020444920
:1033D00008600A2001F054FB00214248FEF77EFC01
:1033E000002140483C38FEF779FC00213D48503828
:1033F000FEF774FC00213C4800F0BCF84FF400419B
:103400003A48FEF74BFE4FF400513848FEF748FEAD
:10341000FEF740FF002036490880FEF797FF4FF483
:1034200000512B48FEF73AFE4FF480412848FEF742
:1034300035FE4FF400412648FEF730FE012001F032
:103440001FFB4FF480712348FEF72AFE4FF40071F2
:103450002048FEF725FE4FF480611E48FEF720FE4F
:103460004FF4967001F00CFB4FF400511848FEF732
:1034700017FE4FF480411648FEF712FE4FF400414C
:103480001348FEF70DFE012001F0FAFA4FF48071A7
:103490001048FEF703FE4FF400710E48FEF7FEFDE4
:1034A0004FF480610B48FEF7F9FD002003490870D6
:1034B00008210848FEF7F2FDBDE8F0871F00002054
:1034C0000C000020002401403C00002014000020DB
:1034D000000C014000080140A245B6F33DEAA740B8
:1034E0004C0000206C000240002C01400010014004
:1034F0002A00002010B51348006840F0010011496F
:10350000086008464068104908400E49486008466F
:1035100000680E4908400B4908600846006820F41E
:10352000802008600846406820F4FE0048604FF4A0
:103530001F008860FFF7AAFD4FF000600449086093
:1035400010BD0000001002400000FFF8FFFFF6FE73
:1035500008ED00E00A884B881A438B881A43CB8811
:103560001A430B891A434B891A438B891A43A0F8D3
:103570004420704721B1028842F00102028004E039
:1035800002884FF6FE731A400280704731B1B0F8DE
:10359000442042F40042A0F8442005E0B0F8442062
:1035A000C2F30E02A0F8442070471AB183890B437E
:1035B000838102E083898B438381704770B5002447
:1035C00000220023058C4FF6FE7635400584028CE0
:1035D0008388048B4FF68F752C40B51E2C400D88C8
:1035E0002C43751E2A400D892A434D882A43144DC9
:1035F000A8420BD0134DA84208D0134DA84205D0C5
:10360000124DA84202D0124DA84213D14FF6F775C1
:103610002A404D892A434FF6FB752A408D882A435C
:103620004FF6FF652B404FF6FF552B408D892B43FE
:10363000CD892B4383800483CD888586028470BD29
:10364000002C014000340140004001400044014092
:10365000004801400A460021018B4FF6F7731940DC
:10366000114301837047000070B50024002200233D
:10367000058C4FF6EF7635400584028C8388048BE9
:1036800048F6FF752C404FF6FF452C400D884FF64D
:10369000FF7606EA05252C434FF6DF752A400D8993
:1036A00006EA05152A434D8806EA05152A43154DF5
:1036B000A84202D0144DA8421DD14FF67F752A4072
:1036C0004D894FF6FF7606EA05152A434FF6BF757A
:1036D0002A408D8806EA05152A434FF6FF352B4010
:1036E0004FF2FF752B408D8906EA85052B43CD8966
:1036F00006EA85052B4383800483CD8805870284F1
:1037000070BD0000002C0140003401400A46002139
:10371000018B4FF2FF7319404FF6FF7303EA022348
:10372000194301837047000070B500240022002374
:10373000058C4FF6FF6635400584028C8388848BA8
:103740004FF68F752C404FF6FC752C400D882C439E
:103750004FF6FF552A400D894FF6FF7606EA0525FC
:103760002A434D8806EA05252A43154DA84202D072
:10377000144DA8421DD14FF2FF752A404D894FF6D6
:10378000FF7606EA05252A434FF6FF352A408D8845
:1037900006EA05252A434EF6FF752B404DF6FF75C8
:1037A0002B408D8906EA05152B43CD8906EA0515C0
:1037B0002B4383808483CD888587028470BD00007D
:1037C000002C0140003401400A460021818B4FF655
:1037D000F77319401143818370470000002202886B
:1037E0001D4B98420ED01D4B98420BD0B0F1804F2C
:1037F00008D01B4B984205D01A4B984202D01A4B66
:10380000984204D14FF68F731A404B881A43174BD6
:10381000984207D0164B984204D04FF6FF431A4007
:10382000CB881A4302808B8883850B8803850A4BDB
:1038300098420BD0094B984208D00E4B984205D0C5
:103840000D4B984202D00D4B984201D10B7A038662
:103850000123838270470000002C014000340140A6
:103860000004004000080040000C00400010004030
:103870000014004000400140004401400048014065
:103880004FF6FF71818000210180C180418001726B
:10389000704700002DE9F84F082001F0D7F80546E1
:1038A000082001F0D3F80544082001F0CFF80544C2
:1038B000082001F0CBF80544082001F0C7F828449F
:1038C000052190FBF1F4204602F031FB05462A4623
:1038D0000B4600203C4902F039F9074600223B4BD9
:1038E00002F0CCFC824602F043F881464946384853
:1038F00002F03CFE81463749484602F037FE009010
:10390000009802F0A5FD074601F00AF9054602F00D
:103910002FF800903049009802F028FE009000989F
:1039200002F096FD07462D4A2D4B02F053F805464E
:1039300002F01EF80090009802F08AFD05462A4623
:103940000B460020214902F001F9074602F010F869
:1039500000902449009802F0CBFF00902249009883
:1039600002F0FAFE054602F0C3FE0446052C01DA19
:10397000BDE8F88F1D480068201A322190FBF1F055
:103980001A4909680844194908600846006840F265
:10399000EE21884203DD0420FEF7E0F9E8E7134852
:1039A0000068B0F5FA7F03DD02211148FEF778FBCD
:1039B0000E480068B0F5C87F03DA02210C48FEF714
:1039C0006DFB00BFD4E700000000B0400000F03FF6
:1039D00000A08C4600D8564700409C45EE4835ADC7
:1039E0008D916B3F0000894300002041440000207E
:1039F0000008014010B514480078022803D012488E
:103A0000007801281DD14FF480711048FEF73DFB6E
:103A1000A8B94FF400410E48FEF737FB78B90D48BE
:103A2000006860B90A2001F02BF84FF48071074854
:103A3000FEF72BFB08B9012010BD0020FCE7002099
:103A4000FAE700BFF8E7000020000020000C01406A
:103A5000001001403000002010B54FF400712948DB
:103A6000FEF713FB60B90A2001F00AF84FF4007169
:103A70002448FEF70AFB08B9012010BD0020FCE72E
:103A80002148007802283AD1C1011E48FEF7FDFA0C
:103A9000C0B11E480078A8B94FF400411C48FEF799
:103AA000F4FA10B91B48006860B10A2000F0E8FF82
:103AB0004FF480711348FEF7E8FA08B10120DCE703
:103AC0000020DAE780210F48FEF7DFFAB8B10F488F
:103AD0000078A0B14FF400410D48FEF7D6FA10B9B6
:103AE0000C48006858B10A2000F0CAFF8021054840
:103AF000FEF7CBFA08B10120BFE70020BDE70020A8
:103B0000BBE70000000C0140200000206000002006
:103B100000100140300000202DE9F0439FB0044622
:103B2000FEF7B8FBFE480068401CFD4908600846E7
:103B30000068322801DD002008600020FEF7F2FF57
:103B4000F8480068002859DD12211120FEF7FAFF1D
:103B5000F448006801280DD112210320FEF7F2FF7E
:103B6000F1A207CA1AAB07C30122F2491AA8FFF74C
:103B700001F93BE0EB480068022809D1EEA207CA30
:103B80001AAB07C30122EB491AA8FFF7F3F82DE09F
:103B9000E4480068032811D112210020FEF7D2FF6B
:103BA000E8A3D3E90020D3E902131AAD0BC519929B
:103BB0000122E04919A8FFF7DDF817E0D9480068AD
:103BC000042809D1E3A207CA1AAB07C30122D949C5
:103BD0001AA8FFF7CFF809E0E1A103C9CDE91B015D
:103BE0000122D4491BA8FFF7C5F800BFFFF7D8F89A
:103BF0000A2000F045FF1FB0BDE8F083DA480068F6
:103C000010B97820D8490860D7480068782802DDC4
:103C10000020D5490860D548007828B1D24800680E
:103C2000401ED149086004E0CF480068401CCE49DE
:103C30000860CF48006808287BD2DFE800F004F471
:103C4000F3F2F1F0EFEE00210320FEF77BFFC9480D
:103C50000078B0B1C8490968C84A126801FB02F08F
:103C600002F062FD8146C64902F076FD054602F08B
:103C7000EFFB07463A460B46C2A11DA8FCF7B4FA73
:103C800011E0BD48006802F04FFD8146BF4902F0D7
:103C90006DFC054602F0DCFB07463A460B46BCA12C
:103CA0001DA8FCF7A1FA0122A2491DA8FFF762F89E
:103CB00000215320FEF746FFB748006802F034FDAC
:103CC0008146B24902F052FC054602F0C1FB0746AC
:103CD0003A460B46B1A11DA8FCF786FA0122954988
:103CE0001DA8FFF747F817210620FEF72BFF01203C
:103CF0003F237F2211210090FEF7D0FE002644BB17
:103D0000FFF7ECF80546012000F0BAFEFFF7E6F8F1
:103D10000544012000F0B4FEFFF7E0F8054403205D
:103D200095FBF0F59F490968481B002802DB014616
:103D300001E018E24142022901DD9A4805609948F4
:103D4000006802F0F1FC0746904902F00FFC0646BD
:103D500008E09548006802F0E7FC05468B4902F050
:103D600005FC0646304602F073FB07463A460B4612
:103D70008EA11DA8FCF738FA01228E491DA8FEF776
:103D8000F9FF8DA000681C9001228A491CA8FEF74B
:103D9000F1FF32210920FEF7D5FE7448007820BBE0
:103DA000012C0CD185A2D2E900109268CDE9020263
:103DB00001910122844901A8FEF7DCFF3EE0022CBC
:103DC00009D182A30FCB8DE80F0001227E496846FE
:103DD000FEF7D0FF32E081A103C9CDE90201012243
:103DE000794902A8FEF7C6FF28E0012C09D17DA27F
:103DF00007CA01AB07C30122734901A8FEF7BAFF46
:103E00001CE0022C10D17AA30FCB8DE80F00012209
:103E10006D496846FEF7AEFF10E0A5E176E147E1A7
:103E200026E16CE043E018E075A103C9CDE9020189
:103E30000122654902A8FEF79DFF00BF4B480078AC
:103E400028B14FF480417048FEF72AF904E04FF49E
:103E500080416D48FEF722F9B2E100210A20FEF709
:103E600071FE142269A117A8FCF795FA01225649A0
:103E700017A8FEF77FFF10210A20FEF763FE3B48DC
:103E8000007848B166A103C9CDE9020101222949A0
:103E900002A8FEF76FFF09E063A103C9CDE90201A3
:103EA0000122244902A8FEF765FF00BF88E1002136
:103EB0000A20FEF747FE5EA207CA14AB07C3012221
:103EC000414914A8FEF756FF10210A20FEF73AFEDA
:103ED0005A48007840B15AA0006803900122154961
:103EE00003A8FEF747FF09E056A103C9CDE9020187
:103EF0000122104902A8FEF73DFF00BF60E100214A
:103F00000A20FEF71FFE51A103C9CDE912010122CB
:103F10002D4912A8FEF72EFF10210A209AE000007A
:103F200068000020300000207F6570658F709089E8
:103F30006B612100800000207F657065856F868E33
:103F4000742100004F91809420926F889086932175
:103F5000000000007F6570658F706585210000009E
:103F60004F9180946B61210064000020600000206C
:103F7000700000201D0000204C0000205000002098
:103F800017B7D138252E32664B570000000020416C
:103F9000252E31664100000044000020252E3066A9
:103FA0005E430000400000203C000020252E3166CA
:103FB0002000000088000020838400003E3E205046
:103FC0006185886F86000000780000203E3E204F0B
:103FD000637461866F816B610000000042836570CD
:103FE0008B8C00003C3C20506185886F860000006F
:103FF0003C3C204F637461866F816B610000000060
:10400000486185618C0000000010014048618370A8
:104010006181822083708420816B823A00000000DD
:1040200048618961880000004284657087880000CB
:104030004181746F63746170743A000075000020F0
:10404000426B8600428A6B860000000050618588C2
:104050006F863A00FEF776FD5C485DA102681DA8F8
:10406000FCF7C2F801225C491DA8FEF783FEA7E019
:1040700000210A20FEF766FD58A2D2E900109268DE
:10408000CDE910020F91012257490FA8FEF772FEE9
:1040900010210A20FEF756FD54484DA102681DA8C4
:1040A000FCF7A2F801224C491DA8FEF763FE87E049
:1040B00000210A20FEF746FD4DA30FCB0BAD0FC527
:1040C000012249490BA8FEF755FE10210A20FEF7F0
:1040D00039FD4B480078012809D14AA103C9CDE92F
:1040E000020101223C4902A8FEF744FE0DE0102126
:1040F0000520FEF727FD45A207CA01AB07C3012231
:10410000354901A8FEF736FE00BF59E000210A201C
:10411000FEF718FD40A3D3E901211868DB68CDE95B
:104120000913CDE9070201222F4907A8FEF722FE55
:1041300010210A20FEF706FD3B48007848B93BA154
:1041400003C9CDE902010122234902A8FEF712FEAC
:1041500009E038A103C9CDE9020101221E4902A8E4
:10416000FEF708FE00BF2BE000210A20FEF7EAFC64
:1041700032A2D2E900109268CDE905020491012231
:10418000194904A8FEF7F6FD10210A20FEF7DAFC13
:104190002D48007848B12DA103C9CDE902010122C3
:1041A0000D4902A8FEF7E6FD09E02AA103C9CDE901
:1041B00002010122084902A8FEF7DCFD00BF00BF92
:1041C00000BFFEF7EDFD00BF15E500001000002068
:1041D000256425250000000080000020546F706DCC
:1041E0006F87658684653A007800002014000020FF
:1041F000548483208983706181826586848A3A0031
:10420000200000204B8B6F846B800000428A6B86FD
:104210008C8D617465868E008D6163746F7461200E
:104220008E8F4D3A000000001C00002054809165E4
:10423000000000004D6F958B656500008F868C84B3
:104240006B61746F703A00001D000020426174744D
:104250008A00000041928465708A000070B540F6C3
:10426000AC5545F25550FEF729F80620FEF71AF82E
:10427000062095FBF0F084B22046FEF719F800BF47
:104280000220FDF7FBFF0128FAD145F25550FEF759
:1042900015F8FDF7EBFF70BD490050EAC12018BFCB
:1042A00004204A0D18BF40F0010040F2FF72B2EB4B
:1042B000515F08BF40F00200012808BF0520704789
:1042C0002DE9F74F144694B00021C4E90211159965
:1042D000079121F00045C9498D4206DC1599C4E9D2
:1042E000000117B00020BDE8F08FC549DFF814A326
:1042F000A9423CDD0799C44E0029C44FC44A159910
:10430000534619DD01F0BAFF554506D0C14AC24BEC
:1043100001F0B4FFC4E900010AE04FF0D352BE4BF4
:1043200001F0ACFF32463B4601F0A8FFC4E90001B2
:1043300017B00120BDE8F08F01F04CFB554506D0C9
:10434000B44AB54B01F046FBC4E900010AE04FF066
:10435000D352B14B01F03EFB32463B4601F03AFBF3
:10436000C4E9000117B04FF0FF30BDE8F08FAB4952
:10437000A942159978DB21F0004183468846A84A76
:10438000A84B01F03BFE0022A74B01F023FB01F0FC
:1043900071FD099001F0CBFD06460F469C4A53463D
:1043A00001F02CFE43465A4601F05CFF80468A46E7
:1043B000984A994B3046394601F020FE2A0D0125D6
:1043C0000B924246534601F04DFF032DC4E9000114
:1043D00039D00B98C1F30A51401A05EB4511113938
:1043E000814230DA9148C346784400EB0510CDF89D
:1043F0000CA00C90D0E900233046394601F0FEFDB8
:1044000002460B46049106905846039901F036FF88
:1044100080468A4602460B465846039901F02EFF15
:10442000049B069A01F02AFF83460C9803913946B3
:10443000D0E90223304601F0E1FD5A46039B01F02A
:104440001DFF6D1CBDE707980028A2BF099817B093
:10445000BDE8F08F616881F000416160099817B094
:104460004042BDE8F08FFFE784461598C1F3130181
:10447000C0F30A50A0F2F5304FEA601800F01F06B2
:10448000C6F12000139000200690079041F4801E92
:1044900005206D4676B1664A08EB00017A4452F871
:1044A000213002EB8101B3404A68139922FA01F1ED
:1044B000194305E05F4908EB0002794451F82210E6
:1044C000A1FB0E27A1FB0C131A449A4234BF01230F
:1044D000002303EB070A05EB8003D3E901B70F4480
:1044E0008F4234BF0121002193448B4411B1934585
:1044F00002D903E0934501D2012100E00021C3E984
:1045000001B7514445F82010011EA0F10100C1DCA3
:104510000298059F00F10050800F12900298DDE98B
:104520000356800001F003FD834628460D9101F0FB
:1045300015FD6FF01D0202F084FACDE90E01304640
:1045400001F00CFD6FF03D0202F07BFA80468A46D6
:10455000384601F003FD6FF05D0202F072FA074683
:1045600042465346119101F035FADDE90E2301F080
:1045700031FA5A460D9B01F02DFA00250E465A4697
:1045800028460D9B01F07AFEDDE90E2301F076FE50
:104590004246534601F072FE3A46119B01F062FE1C
:1045A000DFF898A0244A534601F028FD07468846C4
:1045B000234A244B3146284601F020FD3A46434623
:1045C00001F008FA074688464FF0A84253463146A4
:1045D000284601F013FD3A46434601F0FBF9159ACF
:1045E00012F0004F04D0129A81F000415242129210
:1045F000C4E90001129817B0BDE8F08FFB21E93F34
:104600007CD90240FB21F93F7370032E8A19A33B2A
:10461000000040543163621A61B4D03DFB2139413E
:1046200083C8C96D305FE43F0000E03F645500007F
:10463000E0540000C2540000182D4454FB21F93D01
:104640003326A611460B113C2DE9FF4D21F0004801
:1046500007460C46B8F1795F08DA01F00BFC002838
:1046600001BF0020324904B0BDE8F08D3A46234630
:104670001046194601F0C2FC054602462D480E467A
:104680000B460621784400F05DF82A46334601F0D7
:10469000B5FCDDE9022382468B463846214601F00F
:1046A000ADFC04460F4652465B462846314601F0B3
:1046B000A5FC22463B4601F0E1FD07468A464FF045
:1046C000FF322846314602F0BCF91B4A90450ADA0F
:1046D0003A46534601F0D2FD04B00022BDE8F04D49
:1046E000134B01F0BFBD154A4245A8BFA8F5001500
:1046F0004FF00004B8BF124D22462B4601F0BEFD1C
:104700000646884622462B460020094901F0B6FDA0
:1047100004460D463A4653463046414601F0AEFD4A
:1047200004B022462B46BDE8F04D01F09BBD0000D1
:104730000000F03F905200003333D33F0000E93FC8
:104740000000D23F2DE9F0414F1E00EBC7010446A7
:10475000D1E9000115461E4637F006020DD02A4663
:10476000334601F04BFC7F1E04EBC703D3E9002363
:1047700001F030F937F00602F1D1022F25D0042FD5
:1047800013D0062F18BFBDE8F0812A46334601F04A
:1047900035FCD4E90A2301F01DF92A46334601F01D
:1047A0002DFCD4E9082301F015F92A46334601F01F
:1047B00025FCD4E9062301F00DF92A46334601F021
:1047C0001DFCD4E9042301F005F92A46334601F023
:1047D00015FCD4E9022301F0FDF82A46334601F026
:1047E0000DFCD4E90023BDE8F04101F0F3B800006E
:1047F0002DE9FF4D054621F0004084B00C46B0F194
:10480000795F0BDA2846FFF747FD042808BF00F060
:1048100077F8284608B02146BDE8F08D2A460B46B9
:10482000104601F0EBFB06460F462A46234601F0F0
:10483000E5FB804626488A4632463B4605217844B9
:10484000FFF780FF83461098029160B3214A224B04
:104850004046514601F0D2FBCDE900015A464046A0
:104860005146029B01F0CAFB82468846DDE90601FB
:104870004FF0FF3202F0E5F85246434601F0FEFCED
:1048800032463B4601F0BAFBDDE9062301F0F6FCB7
:10489000DDE9002301F0F2FC08B02A462346BDE81A
:1048A000F04D01F0DFBC0B465A463046394601F068
:1048B000A5FB084A084B01F08DF84246534601F02B
:1048C0009DFB08B02A462346BDE8F04D01F082B8B2
:1048D000D6510000495555555555C5BF00221346C0
:1048E0001046014901F032B90000F03F012202F008
:1048F000A8B8002213461046114601F027B900005F
:10490000024A0020110702F09CB8000001FDFFFFE1
:1049100030380A2801D2012070470020704700007B
:1049200000B587B001214802FDF704FF12208DF881
:10493000180001208DF819008DF81A008DF81B0061
:1049400006A8FDF757FD002001908DF80800012012
:104950008DF809004FF4602003900020049001209E
:104960008DF8140001A91E48FCF7E4FD072301227D
:1049700006211B48FCF706FE642240F64F3118481A
:10498000FCF786FD06211648FCF77AFD1549144808
:10499000FCF76CFD01224FF4A0711148FCF7BEFD3D
:1049A00001210F48FCF77CFD0D48FCF747FE00BFD6
:1049B0000B48FCF7A9FD0028FAD10948FCF74EFE88
:1049C00000BF0748FCF777FD0028FAD10121044811
:1049D000FCF766FD01210248FCF735FE07B000BD7B
:1049E000002401400002800000B585B06846FCF755
:1049F0003AFE002000908DF804008DF805004FF479
:104A0000602002900020039001208DF8100069467C
:104A10000D48FCF78FFD01210B48FCF741FD0A48CA
:104A2000FCF70CFE00BF0848FCF76EFD0028FAD129
:104A30000548FCF713FE00BF0348FCF73CFD0028C7
:104A4000FAD105B000BD00000028014010B50446B1
:104A500001231A4621460948FCF794FD0121074825
:104A6000FCF7F1FD00BF02210448FCF732FD0028ED
:104A7000F9D00248FCF729FD10BD000000280140D4
:104A8000104A12684FF47A73B2FBF3F202FB00F1A2
:104A90000D4A126842F080720B4B1A6000220B4BD9
:104AA0005A601A46126842F001021A6000BF074AB3
:104AB00052688A42FBD3054A126822F00102034B76
:104AC0001A607047B0000020FCED00E0001000E02C
:104AD0001CB501A8FDF7E6FA1C208DF8070080013F
:104AE000ADF8040001208DF8060001A90A48FDF781
:104AF00041FA6846FDF7D6FA4FF46040ADF8000081
:104B00001C208DF8030001208DF80200694603483F
:104B1000FDF730FA1CBD000000080140000C014008
:104B20002DE9F04DC84A002490B0914205DA21F0F9
:104B30000043934201D805D120B110B0BDE8F04D3B
:104B4000FFF7D4BEB1F5801F1BDA53EA000209D08B
:104B5000002911DA0120FBF7A9FC10B0BDE8F04DE7
:104B6000FFF7C7BE0220FBF7A1FCFFF7B7FE10B0AE
:104B700081F00041BDE8F08D6FF03504362201F080
:104B800060FF04EB2152C1F31308B049A2F2FF33D6
:104B9000414401F4801282F07F6103EB225281F0E4
:104BA0004051009241EA08010022A94B01F066FB46
:104BB000044608F10200A74EC0F313000D467E44E0
:104BC000032867D2D6E90023204601F017F91ED149
:104BD0000098002802BFD6E9000110B0BDE8F08DB2
:104BE00001F0A5F907460C469B4A9C4B01F006FADA
:104BF00006460D469A4A9B4B3846214601F0FEF97F
:104C000010B032462B46BDE8F04D00F0E3BE4FF049
:104C10005532954B2046294601F0F0F90022934B7E
:104C200001F020FB06460F4622462B461046194649
:104C300001F0E4F932463B4601F0E0F906460098FF
:104C40000F46F0B101F073F980468A46824A834BE1
:104C500001F0D4F932463B4601F004FB22462B46D4
:104C600001F00CFB05460C467D4A7E4B4046514602
:104C700001F0C4F910B02A462346BDE8F04D01F01A
:104C8000FDBA0B4610B0324620462946BDE8F04D2D
:104C900001F0F4BA00224FF08043204600F09AFE63
:104CA00002460B462046294600F050FF06460F46B6
:104CB000009801F03CF9CDE9040132463B4610462C
:104CC000394601F09BF90C9069480C9A40440190D8
:104CD00009910B46104601F091F98246024665485B
:104CE0008B46C8F151080B4608F5D72803217844B4
:104CF000FFF728FD52465B4601F080F90A905E48B6
:104D00000D9152465B4604217844FFF71BFD099B39
:104D10000C9A01F073F9844601980D9B40EA08084B
:104D200060460A9A00F056FE83460891B8F1000FDB
:104D30004EDD4FF0FF322046294601F082FE22462A
:104D40002B4601F05BF9804600988A4660B3DDE9A6
:104D50000401414A414B01F051F9099100905A4632
:104D600040465146089B00F035FE32463B4601F076
:104D700045F9099B009A00F02DFE4246534601F08A
:104D800071FA22462B4601F079FA04460D46DDE918
:104D90000401334A334B01F031F910B022462B465F
:104DA000BDE8F04D01F06ABA5A464046089B00F053
:104DB00011FE32463B4601F021F94246534601F0CE
:104DC00051FA10B022462B46BDE8F04D01F04ABA28
:104DD000009840B3DDE904011F4A204B01F00EF9B1
:104DE00080468A465A4620462946089B01F046FAE4
:104DF00032463B4601F002F94246534601F03EFA84
:104E000022462B4601F03AFA04460D46DDE904013C
:104E1000134A144B01F0F2F810B022462B46BDE8BD
:104E2000F04D01F02BBA0B465A462046294601F0B8
:104E300025FA32463B4601F0E1F810B022462B46F7
:104E4000BDE8F04D01F00EBA0000F07F645F09008C
:104E50000000F03F864D0000763C7935EF39EA3DA1
:104E60000000E0FE422EE63F5555D53F0000E03FF2
:104E700086EBF9FFEE4B0000EC4B00000EB5012174
:104E800040F61D40FDF756FC00247D48406AC0F303
:104E900040741CBBFDF75CFE6420FFF7F1FD1021A0
:104EA0001120FDF74FFE77A103C9CDE901010122D1
:104EB000764901A8FDF75EFF35210220FDF742FE8D
:104EC00073A000680090012272496846FDF752FF06
:104ED000FDF766FF6420FFF7D3FD16E0FDF738FE0F
:104EE0003220FFF7CDFD10212620FDF72BFE6AA012
:104EF000006802900122654902A8FDF73BFFFDF71B
:104F00004FFF3220FFF7BCFD00BF0A20FFF7B8FDBE
:104F1000FDF744FAFFF768FDFFF702FDFDF7D4F94E
:104F20000020FEF7EDF980215C48FDF7AEF808B9E6
:104F3000FDF77AFCFDF756FB4FF49670FFF7A0FDE6
:104F4000FFF78CF99BE0FDF7A5F9FDF7EDFAFEF709
:104F500051FD70B15248006858B9C820FFF790FD64
:104F600050480078022802D100204F490870FEF70F
:104F700001F9FEF771FDC8B14C48006850B100203E
:104F80004A49086001214A48FDF788F840F2DC50A0
:104F9000FFF776FD4FF400414648FDF776F828B15B
:104FA0009620FFF76DFD0120FEF7AAF9FEF772FCCF
:104FB00080213A48FDF769F868BB0A20FFF760FDD9
:104FC00080213648FDF761F828BB4FF4004139488D
:104FD000FDF75BF870B133480078012824D1FEF763
:104FE0008FF93148007880F001002F490870FEF7F2
:104FF000C1F819E02A48006868B92A4800780128F1
:105000000AD12948007880F00100274908704FF440
:10501000FA70FFF735FD07E02448006820B9012049
:1050200021490870FEF7A6F84FF400412148FDF72A
:105030002CF808B1FDF778FF4FF480511748FDF7C1
:1050400024F8C8B9FDF726F94FF400411948FDF7D7
:105050001CF810B1FDF706FA0EE04FF47A70FFF776
:105060000FFDFDF717F94FF480510C48FDF70DF8CF
:1050700010B90320FCF772FE0020FEF74DFD62E739
:10508000001002407F70808165822100880000202E
:10509000667265657800002021212100000C014026
:1050A0007000002020000020600000203000002060
:1050B00000080140001001402DE9F041044620465F
:1050C00001F032FB8046064901F050FA054601F036
:1050D000BFF90646034A044B00F090FFBDE8F0819B
:1050E000000034434AD8124DFB21094000B5254B3E
:1050F00021F0004287B09A4203DC0022134600925E
:105100002BE0214B9A4208D140B94FF00100FBF748
:10511000CDF9FFF7EEFB07B000BD03DBFFF7E6FBC1
:1051200007B000BD02AAFFF7CBF810F003014FF063
:1051300001000DD0012914D002291AD00DF1080C5C
:105140009CE80F00FFF780FA07B081F0004100BD36
:105150000DF1080C00909CE80F00FFF749FB07B029
:1051600000BD0DF1080C9CE80F00FFF76DFA07B0C9
:1051700000BD0DF1080C00909CE80F00FFF738FB14
:10518000E2E70000FB21E93F0000F07F00B58BB0B3
:1051900001210846FDF7AEFA6846FCF7D2FD1E482D
:1051A00000901E480190102002901D480088039036
:1051B0000020049080200590400006908000079019
:1051C000202008900002099069461648FCF79BFDD4
:1051D00001211448FCF782FD012251020E483438A7
:1051E000FEF7E3F9012202210E48FCF783FD0C20B3
:1051F00000280DDB00BF00BF00F01F02012191401D
:105200004209920002F1E022C2F8001100BF00BF83
:1052100000BF0BB000BD0000342C01405001002045
:10522000280000201C00024000B58BB06846FCF747
:1052300088FD1248009012480190102002901148F9
:105240000088039000200490802005904000069084
:1052500080000790202008900002099069460A48C3
:10526000FCF751FD01210848FCF738FD01229102AD
:1052700002483838FEF799F90BB000BD382C0140D0
:105280004C050020280000203000024000B58BB003
:105290006846FCF756FD1248009012480190102015
:1052A000029011480088039000200490802005900F
:1052B000400006908000079020200890000209908E
:1052C00069460A48FCF71FFD01210848FCF706FD66
:1052D0000122D10202483C38FEF767F90BB000BD4D
:1052E0003C2C014048090020280000206C000240AE
:1052F0002DE9F04F91B0C548007880F00100C34916
:105300000870C3480088032190FBF1FAD346C148D6
:10531000007810B14FEA4A0B01E04FEA4A0ABE4852
:10532000007858B1BD48006800F001FE80460022B8
:10533000BB4B00F00BFC04460D460AE0B748006882
:1053400000F0F5FD80460022B64B00F0FFFB04465E
:105350000D46B54AB54B2046294600F04DFF01D217
:10536000B14CB24DB248006801F0DEF9B1490C9081
:1053700001F0FCF80D9001F06BF88046894622465A
:105380002B460020AC4900F039FE42464B46CDE9A1
:105390000E0100F033FE04460D469D48008800F0E3
:1053A000DDFD804642460B460020A44900F0CEFBBE
:1053B00006460F469548007800287CD1804658E084
:1053C00008EB480000F0B3FD32463B46CDE9000152
:1053D00000F014FECDE9020100F04CFD8146FFF71C
:1053E0006BFECDE90401FFF781FE954A954BCDE9AF
:1053F000060100F003FECDE90A01404600F0AEFDD3
:1054000032463B46CDE9000100F0F8FDCDE902014E
:1054100000F030FD8146FFF74FFECDE90401FFF7B4
:1054200065FE874A884BCDE9060100F0D3FACDE945
:105430000801DDE90A2300F0CDFA22462B46CDE92A
:105440000C0100F0DBFDCDE90E0100F043FD7F49CA
:1054500021F81800B8F17D0F05D0B8F1FA0F02D08D
:10546000B8F5C87F01D1FCF715FF08F101001FFA5C
:1054700080F8674800888045A2DBFCF70BFF00201E
:1054800029E000EB0A01624A1288914202DA00EB3D
:105490000A0103E05E490988411A51446B4A32F817
:1054A00011106B4A22F8101000EB0B01584A1288B9
:1054B000914204DA00E013E000EB0B0103E05449F1
:1054C0000988411A5944614A32F81110614A22F898
:1054D0001010411C88B24E4909888842D1DB8FE008
:1054E0004FF0000858E008EB480000F020FD32467D
:1054F0003B46CDE9000100F081FDCDE9020100F05D
:10550000B9FC8146FFF7D8FDCDE90401FFF7EEFDB8
:105510004B4A4C4BCDE9060100F070FDCDE90A0184
:10552000404600F01BFD32463B46CDE9000100F04D
:1055300065FDCDE9020100F09DFC8146FFF7BCFD51
:10554000CDE90401FFF7D2FD3D4A3F4BCDE906010D
:1055500000F040FACDE90801DDE90A2300F03AFA4B
:1055600022462B46CDE90C0100F048FDCDE90E01A5
:1055700000F0B0FC384921F81800B8F17D0F05D0D3
:10558000B8F1FA0F02D0B8F5C87F01D1FCF782FE5E
:1055900008F101001FFA80F81D4800888045A2DB51
:1055A000FCF778FE002027E000EB0A01184A128879
:1055B000914202DA00EB0A0103E015490988411A19
:1055C0005144254A32F81110244A22F8101000EBF9
:1055D0000B010F4A1288914202DA00EB0B0103E043
:1055E0000B490988411A59441B4A32F811101C4AC8
:1055F00022F81010411C88B2054909888842D3DB83
:1056000001201849087011B0BDE8F08F7600002025
:1056100028000020600000201F0000203C00002027
:105620000000894000E085403D0AD7A3703DE23F7D
:10563000180000200000C84200405F400080764013
:10564000295C8FC2F528CC3FF528EC3F50010020A3
:105650004C05002048090020440D00204011002086
:105660003C1500202C00002000B585B001218805E4
:10567000FDF750F801210820FDF75CF8154800906F
:105680000020ADF804004BF6FF70ADF806001520C1
:10569000ADF808000020ADF80A004FF48040ADF8E6
:1056A0000C0069460C48FCF76BFD4FF44060ADF808
:1056B00010001C208DF8130003208DF8120004A99F
:1056C0000648FCF757FC01210348FCF74CFD05B0E8
:1056D00000BD0000801A060000580040000C014088
:1056E0002DE9F04104460D4616461F46208840F439
:1056F0008070208044F620602349086008E022483A
:105700000068401E2049086010B90120BDE8F08102
:10571000A08A00F001000028F1D01FB1208840F4D9
:1057200080602080A6B925F00100208244F6206028
:105730001549086007E014480068401E12490860D7
:1057400008B90120E2E7A08A00F002000028F2D0A8
:10575000012E15D145F00100208244F620600A494F
:10576000086007E008480068401E0749086008B95B
:105770000120CBE705492046FCF7E0FC0028F1D0EA
:10578000208B0020C2E700009800002002000300E8
:10579000014644F620600D4A106007E00B4800689F
:1057A000401E0A4A106008B901207047888A00F03C
:1057B00080000028F2D0888A00F004000028EDD094
:1057C000088840F4007008800020EEE79800002070
:1057D0002DE9F04106460F4614461D4600231A46A1
:1057E00039463046FFF77CFF2146304600F00AF884
:1057F0002946304600F006F83046FFF7C9FFBDE8FD
:10580000F081000044F62062084B1A6004E0074A69
:105810001268521E054B1A60828A02F080021AB981
:10582000024A1268002AF2D10182704798000020D3
:105830002DE9F0470746884615461E46DDF82090BC
:1058400000231A4641463846FFF74AFF29463846A4
:10585000FFF7D8FF002405E0315D3846FFF7D2FF9F
:10586000601CC4B24C45F7DB3846FFF791FFBDE83A
:10587000F087000000B58BB008A8FEF701F82F48AC
:10588000008880B2ADF820006020ADF822007D20B5
:10589000ADF824000020ADF8260008A92848FDF73F
:1058A0009DFF7020ADF810000120ADF8120004201B
:1058B000ADF814000820ADF81A000220ADF8180069
:1058C00004A91F48FDF77AFE08211D48FDF7C2FE16
:1058D00004A91B48FDF7C8FE08211948FDF716FF6B
:1058E00004A91748FDF720FF08211548FDF76CFFB4
:1058F00001211348FDF73EFE01211148FDF746FE48
:105900004FF40060ADF800004010ADF802008010C8
:10591000ADF80400FD20ADF806000020ADF8080049
:105920004FF40050ADF80A004000ADF80C00694695
:105930000348FDF70FFE0BB000BD0000240000205F
:10594000002C014010B500290AD00878002807D0A3
:1059500005487844FBF768F9002801D0002010BD05
:105960000248784410BD0000A24100009A410000A6
:1059700021F00042A2F16052B2F5801F01F0004315
:1059800028BFD2F17F6C0BD95FEA001C43EAC20248
:1059900042EB507018BF704728BF20F001007047DD
:1059A000B2F5801FBCBF184670474FEA410C1CF58A
:1059B000001F02D2084600F096BF70B500F0C8FB89
:1059C00000000089FFF7F6BF4FF00040A0F580000F
:1059D0007047000010B591EA030F48BF83F0004301
:1059E00000F15484841A71EB030C05D2121943EBB5
:1059F0000C03001B61EB0C01DFF824E14FEA1154AA
:105A0000A4EB135C1EEA430F18BF9EEA445F73D0F9
:105A100023EA0E03DCF1200E21EA045143F4801343
:105A200032D322FA0CFE10EB0E0023FA0CFE41EBEF
:105A30000E01CCF1200E03FA0EFE10EB0E0051F118
:105A40000001B1F5801FCCF1200E32D201EB0451E0
:105A500012FA0EF2BDE8104058BF7047401C38BF24
:105A60005FEA420218BF7047002814BF20F001000F
:105A700041F100014FEA410313F5001F38BF7047A1
:105A8000A1F1C04100F0B2BB012A43EB0302ACF12B
:105A9000200CDCF11F0E32BF4FF0000E23FA0CF386
:105AA00010EB030041EB0451B4EB115FD0D0A1EB3C
:105AB000045101F5801149085FEA300001EB0451FF
:105AC0000ED350F1000038BF12FA0EFE08D1BDE827
:105AD0001040C9E7401C38BF5FEA4202CAD1C3E7A1
