:020000040800F2
:10000000A8190020A1010008A9010008AB010008FF
:10001000AD010008AF010008B101000800000000B8
:10002000000000000000000000000000B301000814
:10003000B501000800000000B7010008B901000880
:10004000BB010008BB010008BB010008BB010008A0
:10005000BB010008BB010008BB010008BB01000890
:10006000BB010008BB010008BB010008BB01000880
:10007000F9160008BB010008BB010008BB0100081D
:10008000BB010008BB010008B5120008BB01000855
:10009000BB010008BB010008BB010008BB01000850
:1000A000BB010008BB010008BB010008BB01000840
:1000B000BB010008BB010008BB010008BB01000830
:1000C000BB010008BB010008BB010008BB01000820
:1000D000BB010008BB010008BB010008BB01000810
:1000E000BB010008BB010008BB01000800F002F8DA
:1000F00000F047F80AA090E8000C82448344AAF17B
:100100000107DA4501D100F03CF8AFF2090EBAE878
:100110000F0013F0010F18BFFB1A43F0010318473B
:10012000DC7D0000FC7D0000103A24BF78C878C157
:10013000FAD8520724BF30C830C144BF04680C60ED
:10014000704700000023002400250026103A28BF35
:1001500078C1FBD8520728BF30C148BF0B60704739
:10016000662905F04B81002070471FB500F060FB49
:1001700004000020002104F0CDF9E0601FBD10B59F
:1001800010BD00F059FC1146FFF7EFFF03F0AAFD88
:1001900000F077FC03B4FFF7F2FF03BC00F0BAFCF9
:1001A0000948804709480047FEE7FEE7FEE7FEE70B
:1001B000FEE7FEE7FEE7FEE7FEE7FEE70448054947
:1001C000054A064B704700004D290008ED00000865
:1001D000A8130020A8190020A8150020A8150020A9
:1001E0000FB41CB5074B06AA7B44694600900598DE
:1001F00000F005FB0020694600F014FB1CBC5DF814
:1002000014FB0000390600002DE9F0474FF0000A0A
:1002100089460446C0F820A02046E16888470028A7
:1002200076D0252806D0D4E901219047206A401CC9
:100230002062F1E7E168204600258847C4F81CA049
:1002400006460027C4F818A02A2E09D0304603F02D
:100250008DFA38B304EB8708303EC8F8186019E00F
:1002600059F8041B204604EB87029161E168884736
:10027000012F064618D1E069002820DA25F0200574
:100280001DE0D8F8180000EB800006EB4000303885
:10029000C8F818002046E1688847064603F066FA69
:1002A0000028EED1012F0AD02E2E08D12046E16879
:1002B00088477F1C0646022F45F02005C4DBA06955
:1002C000002803DA404245F00105A061E80701D0AB
:1002D00025F01005B6B1A6F14100192802D8203644
:1002E00045F400654A463146204625604D46FFF7F5
:1002F00037FF58B1012806D0ED1D25F0070000F1A9
:10030000080989E704E005F1040985E730468AE732
:10031000206ABDE8F08702F0FF0343EA032242EAC5
:10032000024200F002B84FF000020429C0F012802F
:1003300010F0030C00F01B80CCF1040CBCF1020F98
:1003400018BF00F8012BA8BF20F8022BA1EB0C016D
:1003500000F00DB85FEAC17C24BF00F8012B00F863
:10036000012B48BF00F8012B70474FF0000200B589
:10037000134694469646203922BFA0E80C50A0E8C8
:100380000C50B1F12001BFF4F7AF090728BFA0E876
:100390000C5048BF0CC05DF804EB890028BF40F842
:1003A000042B08BF704748BF20F8022B11F0804F84
:1003B00018BF00F8012B704770477047704710B5A1
:1003C00000F03AFA006810BD10B5044600F034FAA7
:1003D000046010BD70472DE9FF4F0C461E464FF0DC
:1003E000FF378BB0D2E90001DDF860800A908A46C1
:1003F000C1F30A5505B93D46002108464FF00000FB
:10040000BAF1000F00F4400005DA00EB80004FF471
:10041000400101EA50004FEA9059B9F1010F00DDA7
:10042000B9460A9850EA4A000ED044F61050A5F298
:10043000FF3545432F14B8F1000F1ED07542291E19
:100440001EDDC9F100021CE0B8F1010F4FF0000001
:1004500001D0302103E0F24305E02154401CB042BA
:10046000FBDB30460022002121540B99C1F80880A3
:10047000C1E900200FB0BDE8F08FBD1B6D1CDEE7A9
:100480004A4600DA694206A800F060FA06AB93E833
:10049000070003AB83E8070050460A9900F041FBD0
:1004A0008DE80700A0F500501F3800900398002D3C
:1004B0000ADD42F21F014A460844002303A90390C3
:1004C000684600F0AAFD09E0A0F500504A461F3832
:1004D000002303A90390684600F0B4FD8DE80700EF
:1004E0000004000C03D04FF0FF30410800E010463C
:1004F000B8F1000F03D00022009215461EE0751ED1
:1005000005D400F09DF9303262556D1EF9D5B34621
:100510000122084302D000227F1C04E0207830280A
:1005200001D100227F1E002A099784D01DE0112DE1
:1005300007DA00F085F9303262556D1C50EA01028D
:10054000F5D1084302D00098C8B10EE00021681E22
:1005500005E0235C625C63542254401E491C8142C6
:10056000F7DBAB46A81B401E0990002004F80B00E7
:100570000B98099AC0F80880C0E9002B7AE7112689
:100580004FF0000857E72DE9F04F88460446D21D8A
:1005900022F0070191B0D1E90001CDE90A0102F092
:1005A000A9FD02460B98C00F01D02D2007E020685E
:1005B000810701D52B2002E0202101EAC000032A97
:1005C000099001D0072A05DB03464146204600F08A
:1005D0007DF90BE12078800601D5E06900E0062076
:1005E000B8F1650F814606D0B8F1660F18D0B8F1A2
:1005F000670F70D131E00020B9F1110F009001DBDD
:10060000112301E009F101030AAA01A90CA8FFF7CF
:10061000E2FEDDE90C70002609F10105834647E0A2
:1006200001204B4600904FF000470AAA01A90CA8F0
:10063000FFF7D1FEDDE90DB00C995D46002610B93B
:1006400009F101000D18B9EB050003D4C0F1FF3624
:1006500009F10105A5EB09002BE0B9F1010F01DA61
:100660004FF001090020B9F1110F0090484601DD5B
:10067000112300E003460AAA01A90CA8FFF7ABFE6C
:10068000DDE90C704D4600268346207800070AD429
:10069000AB4500DA5D4601A8012D04DD411911F8D2
:1006A000011C302907D04F4502DA17F1040F04DA94
:1006B000012082460FE06D1EEEE7002F02DCED1BED
:1006C0003E4403E0781CA84200DD7D1CB81B00F10D
:1006D000010A4FF000472078000703D4AA4501DB48
:1006E0004FF0FF3A0021B7F1004F0DF143088DF8AC
:1006F000431024D002202B23002F01DA7F422D2328
:100700000A21021EA0F1010000DC5FB197FBF1FCA1
:1007100097FBF1F201FB1C7C17460CF1300C08F83A
:1007200001CDEEE7A8F1010003702188090501D58C
:10073000452100E06521A0F1010800F8011C09989D
:100740000FA9A1EB0807FF1D00B10120411901EB22
:10075000EA70A1693844081A401EA0612078C006DA
:1007600002D42046AFF30080099828B1D4E90121D2
:100770009047206A401C20622078C00622D520467F
:10078000AFF300801EE0002E04DBB34502DD01A8BC
:10079000805D00E03020D4E901219047206A401CB0
:1007A0002062761CAAF101005FEA000A0AD100F07B
:1007B0003FF8C0680168405CD4E901219047206A95
:1007C000401C2062281EA5F10105DCDC07E0D4E90D
:1007D000012118F8010B9047206A401C2062381E46
:1007E000A7F10107F3DC2046AFF30080032011B02E
:1007F00041E6000001694A1C02610878704700B5B3
:100800008FB0CDE901310021059105497944CDE949
:10081000031011466846FFF7F7FC0FB000BD00005B
:10082000E5FFFFFF0A6802F8010B0A60704700004D
:1008300000487047641300200048704744130020AC
:1008400030B5B0F10A024FEA900E71F100034EEAA2
:10085000817EB0EB0E0061EB91014FEA101E4EEA73
:10086000017E10EB0E0041EB11114FEA102E4EEA03
:10087000016E10EB0E0041EB11214FEA104E4EEAD3
:10088000014E10EB0E0041EB1141401841F1000107
:100890004FEAD00040EA41704FEAD10110EB8005E9
:1008A0004FEA810444EA907444EB01046D1944EB6F
:1008B0000404521BA3414FF0000348BF0A3200D585
:1008C00030BD401C41F1000130BD00002DE9F04178
:1008D0001F46044603260168072A01F4006004DB72
:1008E00008B116A505E016A503E008B115A500E0BE
:1008F00015A521F010002060A069C01EA0610FB1F5
:10090000401EA0612046AFF300804FB1D4E9012121
:1009100038469047206A401C2062C01C206206E0D6
:10092000206AFAE7D4E9012115F8010B9047761EF9
:10093000F8D22046AFF30080BDE8F0814E414E0072
:100940006E616E00494E4600696E66002DE9F04703
:10095000814616468AB0354878440DC88DE80D00AA
:1009600032487844801C03AC0DC884E80D0041F681
:100970009B300844372190FBF1F290FBF1F5A5F193
:10098000800501FB12041B3C02D56442012000E0FB
:100990000020DFF898A080460027FA44AAF1BE0A9A
:1009A0000EE0E0070AD03246684607EB4701012314
:1009B0000AEB810100F046FB8DE8070064107F1C04
:1009C000002CEED1194F7F44AE3F19E0E80715D057
:1009D00007EB04100DF1180A90E80E008AE80E00EB
:1009E000C068F04201D1981908903246012306A947
:1009F00003A800F027FB03AB83E807006D10641C1D
:100A0000002DE3D14FF0010332466946B8F1000FE3
:100A100003A802D000F001FB01E000F013FBC9E9DC
:100A20000001C9F808200AB0BDE8F0878875000009
:100A300000487047441300207546FFF7F9FFAE46A3
:100A400005006946534620F00700854618B020B5DA
:100A5000FFF7B4FBBDE820404FF000064FF0000761
:100A60004FF000084FF0000B21F00701AC46ACE856
:100A7000C009ACE8C009ACE8C009ACE8C0098D46C3
:100A8000704710B50446AFF300802046BDE8104023
:100A9000FFF780BB4FF0013C50F8042B51F8043BAA
:100AA0009A4221D1A2EB0C03934313EACC1317D142
:100AB00050F8042B51F8043B9A4215D1A2EB0C03D9
:100AC000934313EACC130BD150F8042B51F8043B99
:100AD0009A4209D1A2EB0C03934313EACC13DBD067
:100AE0004FF00000704700BFD01A01BAB1FA81F18F
:100AF00001F0180122FA01F0CB40C1F12001DBB274
:100B0000C0B2C01A2CFA01F3D11A914311EAC311F1
:100B1000E6D1704701491820ABBEFEE7260002006F
:100B200070475FEA400C08BF91F0000F4FEA8C233A
:100B30004FEAC12243EA51514FEA1C5018BF00F559
:100B4000F0404FEA300018BF41F000415FEA6C5CB2
:100B500000F02980BCF1FF3F08BF40F080407047A3
:100B6000130C06BF12044FF0100C4FF0000C130EC4
:100B700004BF12020CF1080C130F04BF12010CF198
:100B8000040C930F04BF92000CF1020CD30F04BFAE
:100B900052000CF1010C11464FF00002A0F11F00B1
:100BA000A0EB0C00704711F0004F08BF704731F008
:100BB00000413FF4D5AF0B0C06BF09044FF0100CF9
:100BC0004FF0000C0B0E04BF09020CF1080C0B0FC8
:100BD00004BF09010CF1040C8B0F04BF89000CF158
:100BE000020CCB0F04BF49000CF1010CCCF1200327
:100BF000A0EB0C0022FA03F302FA0CF241EA030123
:100C000000F10100704720F07F4C80EA030023F0E0
:100C10007F47ACEB070303F57C5300F0004003F182
:100C2000FF032DE980494FEA154B09B44FEA1443FD
:100C300025EA0B4E24EA03480FF2042606EB13279D
:100C400049083E785FEA320203FB0667C7F50007F2
:100C500007FB06F64FEA54374FEAD64606F102067E
:100C600007FB066CCCF1005C4FEA1C472CEA074CF2
:100C700007FB06F40CFB06F504EB15464FEA961647
:100C800034BF00204FF000404FEAD13706FB07FC8D
:100C90004FEA1C4C0CFB0BF7D21B03FB0CF761EB70
:100CA00007010CFB0EF7B0EB074072EB17420CFB91
:100CB00008F734BFA2EB0742B2EB074261EB1741E2
:100CC0004FEA0C444FEA910706FB07FC4FEA1C4C25
:100CD0000CFB0BF7B0EBC74072EB573203FB0CF782
:100CE00034BFA2EBC742B2EBC74261EB57310CFBFA
:100CF0000EF7B0EBC70072EB57720CFB08F734BF6E
:100D0000A2EBC702B2EBC70261EB5771039F4FEA38
:100D1000816141EA921104EBCC044FEAD1374FEAEA
:100D2000826206FB07FC42EA90124FEA80604FEABB
:100D30001C4C0CFB0BF7D21B03FB0CF761EB070100
:100D40000CFB0EF7B0EB074072EB17420CFB08F7F9
:100D500034BFA2EB0742B2EB074261EB17414FEA07
:100D60008C554FEA910704EB9C2406FB07FC4FEAE5
:100D70001C4C0CFB0BF7B0EBC74072EB573203FB7C
:100D80000CF734BFA2EBC742B2EBC74261EB57315D
:100D90000CFB0EF7B0EBC70072EB57720CFB08F7B9
:100DA00034BFA2EBC702B2EBC70261EB577115EB80
:100DB0004C254FEA816141EA92114FEA82624FEA83
:100DC000D13742EA901206FB07FC44F100044FEAD7
:100DD00080604FEA1C4C0CFB0BF7D21B03FB0CF79B
:100DE00061EB07010CFB0EF7B0EB074072EB17420B
:100DF0000CFB08F734BFA2EB0742B2EB074261EBF2
:100E0000174115EB1C154FEA813141EA92414FEA37
:100E1000823242EA90424FEA80304FEA0C7644F147
:100E2000000448EA03434EEA0B484FF0000EB2EBD1
:100E3000080C71EB030724BF624639464EEB0E0ED9
:100E40004FF0000B0018524149414BEB0B0BB2EB3A
:100E5000080C71EB03077BF1000B24BF6246394697
:100E60004EEB0E0E4FF0000B0018524149414BEB78
:100E70000B0BB2EB080C71EB03077BF1000B24BFEB
:100E8000624639464EEB0E0E51EA020718BF46F095
:100E9000010616EB0E7655F1000254F1000103D560
:100EA000BDE88901BDE80088BDE88901BDE80048CA
:100EB000B619524141EB0101A3F101037047808053
:100EC0007F7E7D7C7B7A79787776767574737271A4
:100ED00071706F6E6E6D6C6C6B6A6A69686867665C
:100EE00066656464636362616160605F5F5E5E5DEE
:100EF0005D5C5C5B5B5A5A59595858575756565562
:100F000055555454535352525251515050504F4FC3
:100F10004F4E4E4D4D4D4C4C4C4B4B4B4A4A4A4913
:100F20004949484848474747474646464545454456
:100F30004444444343434342424242414141002BE3
:100F40009C4630D477002BD01CB54FEA370703B44A
:100F50004FF010004FF01001BAF1000F06D0BCF1B5
:100F6000000FDCBF40F0080040F008014FF0000027
:100F70000FBCBDE810400BF1010BBBF1010F08BF26
:100F80005FEA170722BF12F1010211F101014FF0D0
:100F9000004143F1000300F0004043EA00007047C5
:100FA000F9D35708D0E746EA064613F1400F4FEA57
:100FB00016461FDD13F1200FDFBF16430A4600213E
:100FC00020335B42BED0C3F1200746EA064602FA50
:100FD00007F74FEA164646EA0706C3F1200722FA4A
:100FE00003F201FA07F721FA03F14FF0000342EA96
:100FF0000702A7E746EA020646EA06464FEA164611
:1010000046EA0106BCBF46EA0646360C4FF000032E
:101010004FF000024FF0000194E72DE9804C9A4612
:10102000934670B491E8380007C831EA400C48BFD5
:1010300034EA430C03D5FFF7E6FDFFF780FFF0BC71
:10104000BDE8008C2DE9804C9A46934670B491E837
:10105000380007C810F0804F08BF13F0804F03D14D
:1010600000F005F8FFF76BFFF0BCBDE8008C20F046
:101070007F4780EA030023F07F4C07EB0C03A3F5C6
:101080007C5300F00040A3F1FE0392F0000F00F04B
:10109000B38095F0000F00F077802DE901494FEA09
:1010A00011404FEA144621EA004800FB06FC24EAFE
:1010B000064708FB06F607FB08F800FB07F718EBE6
:1010C00006484CEB164C4FEA124B18EB07484FEA18
:1010D00015464CEB174022EA0B4E0BFB06FC25EAAB
:1010E00006470EFB06F607FB0EFE0BFB07F71EEB93
:1010F000064E4CEB164C4FF000061EEB074E4CEB29
:10110000174B18EB0B0840F1000018EB0E0B58EBD7
:10111000000840F100008F1A4FF000013CBFC943A6
:10112000661B14BFB5EB040C00213CBFC943F61B82
:101130004FEA17444EEA8E0E27EA04454FEA1C4751
:1011400004FB07622CEA074C05FB07F70CFB05F6CE
:1011500004FB0CFC16EB074642EB174216EB0C4661
:1011600042EB1C421BEB060658EB0202414146EAE9
:101170009E0601D5BDE80189B619524141EB010136
:10118000A3F10103BDE801894FEA14454FEA114775
:1011900024EA054621EA074C05FB07F406FB07F79E
:1011A0000CFB06F105FB0CFC11EB074144EB17446B
:1011B0004FEA124711EB0C4144EB1C4422EA074C66
:1011C00005FB07F206FB07F70CFB06F605FB0CFC1C
:1011D00016EB074642EB174216EB0C4642EB1C455A
:1011E0006A1854F1000148BF7047B619524141EBEB
:1011F0000101A3F10103704795F0000F37D04FEACA
:1012000011424FEA144721EA024624EA074C02FB46
:1012100007F106FB07F70CFB06F402FB0CFC14EBD2
:10122000074441EB17414FEA154714EB0C4441EBDF
:101230001C4125EA074C02FB07F506FB07F70CFBF0
:1012400006F602FB0CFC16EB074645EB174516EBC2
:101250000C4645EB1C42121951F1000148BF704782
:10126000B619524141EB0101A3F1010370474FEA66
:1012700014454FEA114724EA054621EA074C05FBCD
:1012800007F106FB07F70CFB06F24FF0000605FB23
:101290000CFC12EB074241EB174112EB0C4251EBF5
:1012A0001C4148BF7047921841EB0101A3F10103B3
:1012B0007047000070B54FF4A071344800F0B2F8E8
:1012C000012862D1314800F0A0F804463048314985
:1012D000096820F811402F480068401C2D4908601B
:1012E000084600681E2801D1002008600024002064
:1012F00004E0274931F810100C44401C1E28F8DB8C
:101300001E2094FBF0F440F64E40844202DD00F0D3
:10131000DBFA34E040F65430844204DD08211E48F4
:1013200000F078FB2BE0204603F0E9FB05461B4A62
:101330001B4B03F049FD04D20421174800F06AFB5F
:101340001DE0642C0DDD204603F0D9FB0546154A4F
:10135000154B03F0FFFB04D204210F4800F058FBAB
:101360000DE0642C0BDD40F6FD20844207DA0821F5
:10137000094800F04DFB0421074800F04BFB4FF4F7
:10138000A071024800F027F800BF70BD00240140A2
:10139000C60000202C00002000080140F56C567D9E
:1013A0002EC49E407E1D3867445699400A4600214F
:1013B0004168024B1940114341607047FFFD3FFFF8
:1013C0000A460021416821F01F0111434160704726
:1013D00041628262704700220A12D3430360704761
:1013E00021B1826842F00102826003E0826822F04B
:1013F000010282607047014600208A6802F0040200
:101400000AB1012000E0002070470146C86C80B29C
:1014100070470246002013680B400BB1012000E02A
:101420000020704770B502460020002300240B12F4
:101430005568CEB205EA060415681D4015B10CB119
:10144000012000E0002070BD014600208A6802F003
:1014500008020AB1012000E00020704710B5002307
:10146000CBB21AB144681C43446002E044689C4318
:10147000446010BD30B502460020002350680F4C78
:1014800020400D790C6844EA0524204350609068A0
:101490000B4C2040D1E902542C434D7944EA4504D9
:1014A00020439060D06A20F470000C7C641EE4B28B
:1014B000234340EA0350D06230BD0000FFFEF0FF3E
:1014C000FDF7F1FFF0B504460D4600200021092D7F
:1014D00011DDE068A5F10A0606EB4607072606FAC5
:1014E00007F18843A5F10A0606EB460603FA06F162
:1014F0000843E0600CE0206905EB4507072606FA83
:1015000007F1884305EB450603FA06F1084320611D
:10151000072A0FDA606B561E06EB86071F2606FAAF
:1015200007F18843561E06EB860605FA06F10843C6
:10153000606322E00D2A0FDA206BD61F06EB8607C8
:101540001F2606FA07F18843D61F06EB860605FA22
:1015500006F10843206310E0E06AA2F10D0606EBF5
:1015600086071F2606FA07F18843A2F10D0606EB4F
:10157000860605FA06F10843E062F0BD816841F095
:1015800008018160704721B1826842F4A002826044
:1015900003E0826822F4A00282607047816841F013
:1015A0000401816070470021016001714171816017
:1015B000C1600121017470470146002901DA4842E7
:1015C00070470846FCE700002DE9F047072002F0CD
:1015D00071F9064603F093FA04460D4600221346BD
:1015E0002046294603F0B6FA01D2002425463A489F
:1015F000006800EB80004FEA40082046294603F0CF
:1016000051FA3649364A126821F812003448006807
:10161000401C3349086008460068282801D1002092
:10162000086000242546A1460DE02C4931F8190038
:1016300003F07CFA064622462B4602F0B3FF04462E
:101640000D4609F10109B9F1280FEEDB0022254B07
:101650002046294603F062F804460D464FF4004147
:10166000214800F0CCF940B92046294603F0EAF9B8
:101670001E4908600120BDE8F0871C48006803F09F
:101680003EFA064622462B4603F0D4FB04460D469E
:101690004FF04042164B2046294603F097FA064683
:1016A00003F0D0F9134908600B48006828B14FF4E3
:1016B00000410D4800F0A3F908B90120DBE74046DE
:1016C00003F01DFA064622462B4603F07DFB01D2AD
:1016D0000120D0E70020CEE700000020020100201A
:1016E000300000200000444000100140380000207D
:1016F0001E85E3BF3400002010B541480078002863
:1017000079D000213F4801F061F900213E4800F006
:101710009BF800213C483C3800F096F800213A48FC
:10172000503800F091F839480088394909888842D2
:1017300047D036480088364B188034480088032349
:1017400090FBF3F10A463348007808B14A0000E004
:101750004900002025E0304B1B5C304C24F8103051
:1017600043182A4C2488A34201DA431803E0274B8C
:101770001B88C31A0B44284CE35C294C24F8103016
:101780008318224C2488A34201DA831803E01F4BFC
:101790001B88C31A1344204CE35C224C24F81030FD
:1017A000401C1A4B1B889842D5DB18480088164B02
:1017B0006C3B186715480088586314480088186205
:1017C00000BF194800880F492831088001210E48C0
:1017D00000F03AF801210C483C3800F035F80121BE
:1017E0000948503800F030F80121064801F0EEF8C1
:1017F000002003490870202000F018F810BD0000F8
:1018000014000020002C01406C0002401000002059
:10181000120000203C000020460D00205201002054
:101820004E0500204A0900200C00002000F08051E5
:1018300011B10349086001E00249486070470000A7
:10184000040402400000024021B1026842F001029B
:10185000026004E002684FF6FE731A4002607047AF
:101860001AB103680B43036002E003688B43036013
:10187000704710B50022026847F6F0739A430C6A6D
:101880008B6823430C6923434C6923438C692343AE
:10189000CC6923434C6A23438C6A23431A43026076
:1018A000CB6843600B6883604B68C36010BD002148
:1018B000016041608160C160016141618161C1611C
:1018C000016241628162704710B50121044800F055
:1018D000A1F8012003490870002000F073FF10BD3B
:1018E00000080140150000202DE9F04102460025C6
:1018F0000026002000230024002791F803C00CF0EC
:101900000F0591F803C00CF0100CBCF1000F03D0D0
:1019100091F802C04CEA050591F800C0BCF1000F37
:1019200031D0146800202BE04FF0010C0CFA00F3CA
:10193000B1F800C00CEA03069E4220D183004FF0AC
:101940000F0C0CFA03F7BC4305FA03FC4CEA040441
:1019500091F803C0BCF1280F06D14FF0010C0CFA2E
:1019600000FCC2F814C00AE091F803C0BCF1480FB3
:1019700005D14FF0010C0CFA00FCC2F810C0401C5D
:101980000828D1D31460B1F800C0BCF1FF0F34DDDA
:10199000546800202EE000F1080C4FF0010808FA0E
:1019A0000CF3B1F800C00CEA03069E4221D183007B
:1019B0004FF00F0C0CFA03F7BC4305FA03FC4CEA9A
:1019C000040491F803C0BCF1280F05D100F1080C04
:1019D00008FA0CF8C2F8148091F803C0BCF1480F63
:1019E00007D100F1080C4FF0010808FA0CF8C2F812
:1019F0001080401C0828CED35460BDE8F081024618
:101A0000002093680B400BB1012000E000207047DC
:101A100041617047016170474FF6FF7101800221FB
:101A200081700421C170704710B500F04FFD04466D
:101A3000FFF7CAFD28B14FF480511348FFF7DFFFCD
:101A400018B91E240A2001F04FFF1049104A1268ED
:101A500021F812400E480068401C0D4908600846F5
:101A60000068192801D1002008600024002004E04B
:101A7000064931F810100C44401C1928F8DB1920D5
:101A800094FBF0F4204610BD000C014094000020AF
:101A90001800002070B50246002400250023002015
:101AA000958A138B1B0445EA030626F07F4404EA5B
:101AB00001068E4201D1012000E0002070BD21B15D
:101AC000028842F00102028004E002884FF6FE73B1
:101AD0001A400280704700002DE9F04385B00446AB
:101AE0000D460026B1460427DFF8CC80A6884FF6C5
:101AF000C0700640684600F0DBF9DDF808802F482A
:101B0000B8FBF0F01FFA80F946EA0906A6802088A3
:101B10004FF6FE7108402080002629492868884237
:101B20000CD828684000B8FBF0F087B2042F00DA28
:101B300004273E4309F10100208427E0E8884BF6A2
:101B4000FF71884206D1286800EB4000B8FBF0F036
:101B500087B209E0286800EBC00101EB0010B8FB78
:101B6000F0F087B247F48047C7F30B0008B947F09D
:101B7000010747F4004006434FF4967009FB00F05C
:101B80004FF47A7190FBF1F0401C2084A6832088EA
:101B900040F00100208026884FF6F5300640A888E6
:101BA0006989084306432680A8892989084320813A
:101BB00005B0BDE8F083000000127A0040420F003B
:101BC000A086010008B5012140F61D0000F060F973
:101BD0006846FFF721FF10208DF803000F20ADF8B5
:101BE000000003208DF8020069461748FFF77CFECD
:101BF00010208DF803004FF46040ADF80000012084
:101C00008DF8020069461148FFF76EFE48208DF8F6
:101C100003004FF48050ADF8000003208DF802005F
:101C200069460B48FFF760FE48208DF803004FF42B
:101C30006070ADF8000001208DF80200694604488C
:101C4000FFF752FE08BD00000008014000100140EF
:101C5000000C01401CB501A8FFF7DEFE14208DF832
:101C600007004FF4E060ADF8040001208DF8060095
:101C700001A90A48FFF738FE6846FFF7CDFE142099
:101C80008DF803004FF46040ADF8000003208DF89C
:101C9000020069460248FFF727FE1CBD000801400C
:101CA000000C014070B5002100230F22C47804B35A
:101CB000154C246804F4E064C4F5E064210AC1F121
:101CC0000403CA40447804FA03F1847814402143A1
:101CD00009010E4C0678A155047804F01F05012473
:101CE000AC4005786D11AD0005F1E025C5F8004167
:101CF00009E0047804F01F050124AC40044D067887
:101D0000761145F8264070BD0CED00E000E400E0DF
:101D100080E100E070B5002400253EE04FF48051E2
:101D20002548FFF76CFE98B9641C01212348FFF792
:101D300071FE23480068962805DD21490968A1F154
:101D40000F0000F0EBFB502C1BDDFFF7BDFD28E082
:101D50001B4800681B490968884204DA1848006873
:101D6000C01C00F0DBFB142001F0BEFD0121134874
:101D7000FFF74EFE1248006812490968884200DBEE
:101D800070BD01F08FF838B1002000F01BFD4FF45A
:101D9000967001F0A9FD04E06D1C40F2DC50854214
:101DA000BCDB00BF0848007818B901210348FFF7E1
:101DB0002FFE00BFE4E70000000C014000080140D6
:101DC0002000002024000020150000202DE9F04113
:101DD00001211B48FFF71EFE002417E00F2C00DD39
:101DE00020E0204604EBD0714910A4EB410121B959
:101DF00001211348FFF70EFE03E001211048FFF711
:101E000007FE4FF4967001F06FFD641C062001F090
:101E100051FD074602F073FE05460A4A0A4B02F0DE
:101E200099FEDBD300BF01210548FFF7F1FD00203B
:101E30000649087004210248FFF7ECFDBDE8F08177
:101E400000080140365EBA490C19A2401500002076
:101E500029B1064A52690243044B5A6104E0034A1D
:101E600052698243014B5A617047000000100240E2
:101E700029B1064AD2690243044BDA6104E0034AFD
:101E8000D2698243014BDA617047000000100240C2
:101E900029B1064A92690243044B9A6104E0034A5D
:101EA00092698243014B9A61704700000010024022
:101EB00030B500210022002400232D4D6D6805F06F
:101EC0000C0121B1042905D0082923D105E0294DB1
:101ED000056022E0274D05601FE0254D6D6805F483
:101EE0007012234D6D6805F48034022505EB924293
:101EF0001CB9214D554305600BE01D4D6D6805F47F
:101F000000351DB11C4D5543056002E0194D554388
:101F1000056002E0174D056000BF00BF144D6D68FD
:101F200005F0F0010909154D6B5C0568DD40456061
:101F30000F4D6D6805F4E061090A104D6B5C456852
:101F4000DD4085600A4D6D6805F46051C90A0B4D8E
:101F50006B5C4568DD40C560054D6D6805F440412A
:101F6000890B074D6B5CC568B5FBF3F5056130BDAA
:101F70000010024000127A0000093D006C000020B1
:101F80007C0000202DE9FF4F04460D4616461F46F3
:101F9000802C00DB7F24802E00DB7F26402D00DBA1
:101FA0003F25402F00DB3F27B44201DA301B00E021
:101FB000A01B0FFA80FBBD4201DA781B00E0E81B92
:101FC0000FFA80F9B44201DA012001E04FF0FF304E
:101FD0000390BD4201DA012001E04FF0FF30029092
:101FE000CB4501DD594601E0C9F10001084601EB8E
:101FF000D071491009B20191BBF1000F1ED1AF425F
:1020000004DA0FFA87FA2F461FFA8AF5A64204DA95
:102010000FFA86FA26461FFA8AF40FFA85F809E0C5
:102020001FFA88F120460D9A00F052F808F10100DD
:102030000FFA80F8B845F3DDBDE8FF8FB9F1000F66
:102040001DD1AF4204DA0FFA87FA2F461FFA8AF53C
:10205000A64204DA0FFA86FA26461FFA8AF40FFA25
:1020600084F809E01FFA88F029460D9A00F030F84C
:1020700008F101000FFA80F8B045F3DDDCE722E05B
:10208000294620460D9A00F023F8B44202D1BD4201
:1020900000D119E001980090CBF10001009888422E
:1020A00007DD0198A0EB090000B2019003982044DD
:1020B00084B20098484506DA0198584400B201906D
:1020C0000298284485B2DBE700BF00BFB4E70000F8
:1020D000F0B503461446802B01DA402900DBF0BD41
:1020E0002148007920B10CB9012000E0002004460D
:1020F000012C1CD1CD1701EB5575ED1003EBC51567
:102100001A4E755D0A46CE1701EB5676F610A1EB16
:10211000C6070126BE403543EEB20846CD1701EB97
:102120005575ED1003EBC515104F7E551AE0CD1710
:1021300001EB5575ED1003EBC5150C4E755D0A46A8
:10214000CE1701EB5676F610A1EBC6070126BE406E
:10215000B5430846CE1701EB5676F61003EBC616CC
:10216000024FBD5500BFBAE760000020440F0020B9
:102170002DE9F84104460D4616461F46DDF81C8041
:10218000802C01DA402D01DBBDE8F881A019802800
:1021900002DBC4F1800086B2E819402802DBC5F1F9
:1021A000400087B2A01982B22B4629462046CDF8BE
:1021B0000080FFF7E7FEE81983B2A01982B2E819A0
:1021C00081B22046CDF80080FFF7DCFEE81983B22B
:1021D000224629462046CDF80080FFF7D3FEE919B4
:1021E0008BB2A1198AB2A11988B22946CDF8008014
:1021F000FFF7C8FE00BFC7E710B504460CB90020C2
:1022000000E0FF2002464FF480610248FEF783F8A9
:1022100010BD0000440F0020014A1080518070471B
:102220006000002010B502F007F8012001F05CFB0F
:10223000AE2300227821584802F0B2F82023002271
:102240007821554802F0ACF810230022782152483A
:1022500002F0A6F8B023002278214F4802F0A0F83F
:10226000C823002278214C4802F09AF800231A462D
:102270007821494802F094F810230022782146483A
:1022800002F08EF8402300227821434802F088F8BB
:10229000812300227821404802F082F8FF230022A7
:1022A00078213D4802F07CF8A123002278213A48A9
:1022B00002F076F8A62300227821374802F070F861
:1022C000A82300227821344802F06AF83F23002234
:1022D0007821314802F064F8A423002278212E48A6
:1022E00002F05EF8D323002278212B4802F058F840
:1022F00000231A467821284802F052F8D5230022FC
:102300007821254802F04CF8F02300227821224859
:1023100002F046F8D923002278211F4802F040F845
:102320002223002278211C4802F03AF8DA23002206
:102330007821194802F034F8122300227821164837
:1023400002F02EF8DB2300227821134802F028F84F
:10235000202300227821104802F022F88D23002249
:1023600078210D4802F01CF81423002278210A4835
:1023700002F016F8AF2300227821074802F010F887
:102380000020FFF739FF00F075F8002003490880AE
:1023900048800120487110BD0058004060000020B6
:1023A0002DE9F04307460C469046264800882178E0
:1023B0000844802805DA234840886178084440288A
:1023C00002DB0020BDE8F083002530E0A7F120000B
:1023D000617800FB0150616831F81090002622E01E
:1023E00009FA06F000F4004058B1164A52882A440F
:1023F00091B2144A1288324490B24246FFF768FE06
:1024000010E0B8F1000F01D1012300E000231A46CB
:102410000C4B5B882B4499B20A4B1B88334498B20F
:10242000FFF756FE761C2078B042D9D86D1C607834
:10243000A842CBD803480088217808440149088085
:102440003846BFE76000002070B504460D461646CA
:102450000AE0207832462946FFF7A2FF2178884219
:1024600001D0207870BD641C20780028F1D120783C
:10247000F8E7000038B5002420E004F1B000C3B252
:10248000002278210F4801F08BFF00231A467821A3
:102490000C4801F085FF102300227821094801F043
:1024A0007FFF802000900848802101FB0403402228
:1024B0007821044801F0A4FF601CC4B2082CDCDBC6
:1024C00038BD000000580040440F002010B509201E
:1024D00001F0F0F9044640F2B63104FB01F0C117F7
:1024E00000EB1151091301F13004204610BD00002A
:1024F00010B5FFF799FA044607490968601AFFF713
:102500005BF8012807DD04480460204600F006F867
:10251000322001F0E9F910BD240000202DE9F04738
:1025200086B082462B48C0F800A0006864281BDDF6
:1025300029480068002817DD264909684CF608720A
:1025400092FBF1F1032291FBF2F101EB41002349EF
:1025500009880831814204DC204909880839814210
:1025600001DA1E4A108003E04FF4FF701B49088017
:102570001A49098801EB4102C2EBC11002F0BFFA0F
:1025800004460D461348006802F0B9FA804600225E
:10259000134B02F0C3F8CDE902011248006802F0C3
:1025A000C5FACDE90001DDE9022302F0B7F80646DD
:1025B00022462B4602F0B2F8CDE9040102F042FABD
:1025C0000549086001F022FD01200749087006B0A6
:1025D000BDE8F087200000200C0000201000002043
:1025E00000002440800000201400002010B500F0FE
:1025F00001F810BD0CB50020019000903348006830
:1026000040F480303149086000BF3048006800F471
:10261000003000900198401C0190009818B9019872
:10262000B0F5A06FF1D12948006800F4003010B176
:102630000120009001E0002000900098012843D183
:102640002348006840F010002149086008460068EF
:1026500020F0030008600846006840F002000860AF
:102660001A4840681949486008464068486008466A
:10267000406840F4806048600846406820F47C1060
:1026800048600846406840F4E81048600846006822
:1026900040F08070086000BF0C48006800F00070D7
:1026A0000028F9D00948406820F003000749486035
:1026B0000846406840F00200486000BF0348406898
:1026C00000F00C000828F9D10CBD000000100240F9
:1026D000002002402DE9F04104213648FFF79AF925
:1026E0004FF400513448FFF793F9002403E0FEF75C
:1026F0006BFF8046641C282CF9DB002403E0FFF705
:1027000093F90546641C192CF9DB1920FFF706FF25
:10271000FEF7F2FF01F096FE01F00EF901F0C4FBA6
:1027200001F010FC01F040FC4FF400412248FFF79B
:1027300071F94FF4967001F0D7F80026192435E0AE
:10274000012000F0C7FB4FF480511C48FFF757F9F8
:1027500038B9192C00DDE41E01211648FFF75AF99B
:102760000EE001211348FFF753F92046FFF7D6FE8C
:10277000FEF72AFF08B1A41C02E0C82001F0B4F85B
:1027800000F090FB40B1002000F01CF84FF4967070
:1027900001F0AAF8BDE8F081094800684FF47A71A9
:1027A00091FBF0F7384601F09FF8641CAC42C7DBA0
:1027B00000BFEFE70008014000100140000C01409D
:1027C000040000202DE9F0410546002D3DD056487B
:1027D0000068002839DD0026544804682DE00220F6
:1027E00000F078FB2046FFF799FE4FF480515048E7
:1027F000FFF705F938B9761C01214E48FFF70AF9B1
:10280000322E10DD1BE001214A48FFF701F946484E
:102810000068182190FBF1F0A04204DA42480068F9
:1028200090FBF1F0241A404800684FF47A7191FB54
:10283000F0F7384601F058F8641E322CCFDC00BFA8
:1028400008213C48FFF7E4F800BF00203A4908603F
:102850000A2001F049F800213848FEF7F5FF002171
:1028600036483C38FEF7F0FF002134485038FEF778
:10287000EBFF0021324800F0A9F84FF40041314845
:10288000FFF7C6F84FF400512E48FFF7C3F8FFF7E3
:10289000E1F900202C4908804FF400512448FFF74B
:1028A000B7F84FF480412248FFF7B2F84FF40041E7
:1028B0001F48FFF7ADF8012001F016F84FF48071C2
:1028C0001C48FFF7A7F84FF400711A48FFF7A2F869
:1028D0004FF480611748FFF79DF84FF4967001F0B0
:1028E00003F84FF400511248FFF794F84FF4804179
:1028F0000F48FFF78FF84FF400410D48FFF78AF8B3
:10290000012000F0F1FF4FF480710A48FFF780F8D2
:102910004FF400710748FFF77BF84FF480610548DA
:10292000FFF776F8BDE8F0810800002020000020C5
:10293000000C014000080140340000206C000240FF
:10294000002C0140001001401200002010B5134877
:10295000006840F0010011490860084640681049CD
:1029600008400E494860084600680E4908400B4977
:1029700008600846006820F4802008600846406827
:1029800020F4FE0048604FF41F008860FFF72EFE21
:102990004FF000600449086010BD000000100240C4
:1029A0000000FFF8FFFFF6FE08ED00E00A884B8804
:1029B0001A438B881A43CB881A430B891A434B89D5
:1029C0001A438B891A43A0F84420704721B102882A
:1029D00042F00102028004E002884FF6FE731A40C2
:1029E0000280704731B1B0F8442042F40042A0F8B0
:1029F000442005E0B0F84420C2F30E02A0F84420C1
:102A000070471AB183890B43838102E083898B432A
:102A10008381704770B5002400220023058C4FF697
:102A2000FE7635400584028C8388048B4FF68F75C3
:102A30002C40B51E2C400D882C43751E2A400D8954
:102A40002A434D882A43144DA8420BD0134DA84267
:102A500008D0134DA84205D0124DA84202D0124D05
:102A6000A84213D14FF6F7752A404D892A434FF6F5
:102A7000FB752A408D882A434FF6FF652B404FF6A1
:102A8000FF552B408D892B43CD892B4383800483B5
:102A9000CD888586028470BD002C01400034014041
:102AA0000040014000440140004801400A46002126
:102AB000018B4FF6F77319401143018370470000F3
:102AC00070B5002400220023058C4FF6EF763540C8
:102AD0000584028C8388048B48F6FF752C404FF6E2
:102AE000FF452C400D884FF6FF7606EA05252C435E
:102AF0004FF6DF752A400D8906EA05152A434D88F1
:102B000006EA05152A43154DA84202D0144DA842E5
:102B10001DD14FF67F752A404D894FF6FF7606EAA4
:102B200005152A434FF6BF752A408D8806EA05151C
:102B30002A434FF6FF352B404FF2FF752B408D890E
:102B400006EA85052B43CD8906EA85052B4383805C
:102B50000483CD880587028470BD0000002C0140ED
:102B6000003401400A460021018B4FF2FF731940E7
:102B70004FF6FF7303EA02231943018370470000F5
:102B800070B5002400220023058C4FF6FF66354007
:102B90000584028C8388848B4FF68F752C404FF60A
:102BA000FC752C400D882C434FF6FF552A400D89AB
:102BB0004FF6FF7606EA05252A434D8806EA0525E5
:102BC0002A43154DA84202D0144DA8421DD14FF200
:102BD000FF752A404D894FF6FF7606EA05252A4300
:102BE0004FF6FF352A408D8806EA05252A434EF622
:102BF000FF752B404DF6FF752B408D8906EA0515B4
:102C00002B43CD8906EA05152B4383808483CD8829
:102C10008587028470BD0000002C01400034014013
:102C20000A460021818B4FF6F773194011438183C7
:102C300070470000002202881D4B98420ED01D4BA9
:102C400098420BD0B0F1804F08D01B4B984205D072
:102C50001A4B984202D01A4B984204D14FF68F7308
:102C60001A404B881A43174B984207D0164B98428C
:102C700004D04FF6FF431A40CB881A4302808B885A
:102C800083850B8803850A4B98420BD0094B9842E9
:102C900008D00E4B984205D00D4B984202D00D4BF8
:102CA000984201D10B7A038601238382704700008A
:102CB000002C0140003401400004004000080040A6
:102CC000000C004000100040001400400040014093
:102CD00000440140004801404FF6FF71818000210F
:102CE0000180C18041800172704700002DE9F84FDA
:102CF000082000F0DFFD0446204601F000FF824678
:102D000052460B460020474901F008FD05460022C7
:102D1000454B02F09BF8074601F012FC81464946FC
:102D2000424802F0A9F981464149484602F0A4F917
:102D30000090009802F074F9074600F025FE054661
:102D400001F0FEFB00903B49009802F095F90090DD
:102D5000009802F065F90746374A384B01F022FC2B
:102D6000054601F0EDFB0090009802F059F9074686
:102D70003A460B4600202C4901F0D0FC054601F0F4
:102D8000DFFB0090009802F04BF907464FF06632E7
:102D90002B4B02F05BF8054601F0D2FB009029496D
:102DA000009802F05FFA054602F028FA0446264928
:102DB0000968081B01F0A3FE21F00041054600222E
:102DC000224B02F001F80CD21F490968081B01F0E0
:102DD00096FE21F00041054600221D4B01F0BAFE8F
:102DE00002D31948006808B91748046016480068FB
:102DF000B0F52F7F02DD0020FFF7E4FC12480068E9
:102E0000B0F5FA7F03DD02211248FEF703FE0E48FB
:102E10000068B0F5C87F03DA02210E48FEF7F8FD1E
:102E2000BDE8F88F0000B0400000F03F00A08C46E5
:102E30000030724700E07645FE419DB9FE226C3FAE
:102E4000661271400000204128000020000024404C
:102E500000003E400008014010B54FF480710E485C
:102E6000FEF7CDFDA8B94FF400410C48FEF7C7FDB1
:102E700078B90B48007860B90A2000F035FD4FF4AE
:102E800080710548FEF7BBFD08B9012010BD002088
:102E9000FCE70020FAE70000000C014000100140B0
:102EA0001500002010B54FF400710948FEF7A7FD8A
:102EB00060B90A2000F018FD4FF400710448FEF7D5
:102EC0009EFD08B9012010BD0020FCE70020FAE7B4
:102ED000000C01402DE9FE4304460020FFF78CF969
:102EE0006348006800287CD100210320FFF794F993
:102EF0006048006802F09EF981465F4902F0BCF824
:102F0000064602F08DF807463A460B465BA101A83B
:102F1000FDF766F901225B4901A8FFF795FA002148
:102F20005320FFF779F95848006802F083F9814689
:102F3000514902F0A1F8064602F072F807463A46F7
:102F40000B4652A101A8FDF74BF901224D4901A8FA
:102F5000FFF77AFA17210620FFF75EF901203F23D9
:102F60007F2213210090FFF703F900254CB1494857
:102F7000006802F05FF906463F4902F07DF8054619
:102F800018E0FFF7A3FA444909680E1A002E01DB86
:102F9000304600E07042012803DDFFF797FA3E4912
:102FA00008603D48006802F045F90646324902F0E3
:102FB00063F80546284602F033F8064632460B46CB
:102FC00036A101A8FDF70CF90122364901A8FFF747
:102FD0003BFA32210920FFF71FF94FF40041324834
:102FE00000E040E0FEF70BFD00282DD02F480078D0
:102FF000A8B9012C05D101222D492EA0FFF724FAF2
:1030000022E0022C05D1012229492DA0FFF71CFA4C
:103010001AE0012226492CA0FFF716FA14E0012C31
:1030200005D1012222492BA0FFF70EFA0CE0022C59
:1030300005D101221E492AA0FFF706FA04E0012269
:103040001B4929A0FFF700FA1848007828B14FF46F
:1030500080411548FEF7DEFC04E04FF48041124841
:10306000FEF7D6FC00BF00BFFFF704FABDE8FE8301
:10307000400000203400002000002041252E316651
:10308000410000005000002028000020252E30665E
:10309000430000002000002024000020252E31667F
:1030A00020487A0058000020001001403C00002019
:1030B000480000203E3E20537461727400000000FE
:1030C0003E3E2053746F700020466F7277617264C9
:1030D000000000003C3C205374617274000000004A
:1030E0003C3C2053746F70002052657665727365A6
:1030F00000000000490050EAC12018BF04204A0D1A
:1031000018BF40F0010040F2FF72B2EB515F08BF00
:1031100040F00200012808BF052070472DE9F74F55
:10312000144694B00021C4E902111599079121F0C9
:103130000045C9498D4206DC1599C4E9000117B064
:103140000020BDE8F08FC549DFF814A3A9423CDD9B
:103150000799C44E0029C44FC44A1599534619DD36
:1031600001F074FE554506D0C14AC24B01F06EFE17
:10317000C4E900010AE04FF0D352BE4B01F066FEF5
:1031800032463B4601F062FEC4E9000117B001205F
:10319000BDE8F08F01F006FA554506D0B44AB54BAC
:1031A00001F000FAC4E900010AE04FF0D352B14B3C
:1031B00001F0F8F932463B4601F0F4F9C4E90001A8
:1031C00017B04FF0FF30BDE8F08FAB49A942159919
:1031D00078DB21F0004183468846A84AA84B01F0DD
:1031E000F5FC0022A74B01F0DDF901F02BFC099062
:1031F00001F085FC06460F469C4A534601F0E6FC6A
:1032000043465A4601F016FE80468A46984A994B34
:103210003046394601F0DAFC2A0D01250B92424670
:10322000534601F007FE032DC4E9000139D00B9885
:10323000C1F30A51401A05EB45111139814230DAC8
:103240009148C346784400EB0510CDF80CA00C90D3
:10325000D0E900233046394601F0B8FC02460B465F
:10326000049106905846039901F0F0FD80468A4685
:1032700002460B465846039901F0E8FD049B069A66
:1032800001F0E4FD83460C9803913946D0E902230E
:10329000304601F09BFC5A46039B01F0D7FD6D1CA4
:1032A000BDE707980028A2BF099817B0BDE8F08FC6
:1032B000616881F000416160099817B04042BDE843
:1032C000F08FFFE784461598C1F31301C0F30A504D
:1032D000A0F2F5304FEA601800F01F06C6F120009A
:1032E000139000200690079041F4801E05206D4643
:1032F00076B1664A08EB00017A4452F8213002EBBD
:103300008101B3404A68139922FA01F1194305E09B
:103310005F4908EB0002794451F82210A1FB0E2707
:10332000A1FB0C131A449A4234BF0123002303EB80
:10333000070A05EB8003D3E901B70F448F4234BF7E
:103340000121002193448B4411B1934502D903E03C
:10335000934501D2012100E00021C3E901B75144A6
:1033600045F82010011EA0F10100C1DC0298059F64
:1033700000F10050800F12900298DDE903568000A2
:1033800001F0BDFB834628460D9101F0CFFB6FF0A5
:103390001D0202F067F8CDE90E01304601F0C6FBD0
:1033A0006FF03D0202F05EF880468A46384601F032
:1033B000BDFB6FF05D0202F055F8074642465346EA
:1033C000119101F0EFF8DDE90E2301F0EBF85A4618
:1033D0000D9B01F0E7F800250E465A4628460D9B46
:1033E00001F034FDDDE90E2301F030FD4246534685
:1033F00001F02CFD3A46119B01F01CFDDFF898A06E
:10340000244A534601F0E2FB07468846234A244BF0
:103410003146284601F0DAFB3A46434601F0C2F84D
:10342000074688464FF0A84253463146284601F0E9
:10343000CDFB3A46434601F0B5F8159A12F0004F1D
:1034400004D0129A81F0004152421292C4E9000164
:10345000129817B0BDE8F08FFB21E93F7CD90240FC
:10346000FB21F93F7370032E8A19A33B00004054DF
:103470003163621A61B4D03DFB21394183C8C96D03
:10348000305FE43F0000E03F304B0000AC4A0000FA
:103490008E4A0000182D4454FB21F93D3326A61115
:1034A000460B113C2DE9FF4D21F0004807460C4624
:1034B000B8F1795F08DA01F0C5FA002801BF0020F1
:1034C000324904B0BDE8F08D3A462346104619460D
:1034D00001F07CFB054602462D480E460B460621B0
:1034E000784400F05DF82A46334601F06FFBDDE9D1
:1034F000022382468B463846214601F067FB04468C
:103500000F4652465B462846314601F05FFB224695
:103510003B4601F09BFC07468A464FF0FF322846A7
:10352000314601F09FFF1B4A90450ADA3A4653465E
:1035300001F08CFC04B00022BDE8F04D134B01F00B
:1035400079BC154A4245A8BFA8F500154FF0000404
:10355000B8BF124D22462B4601F078FC064688463D
:1035600022462B460020094901F070FC04460D4616
:103570003A4653463046414601F068FC04B02246C4
:103580002B46BDE8F04D01F055BC00000000F03FB7
:103590005C4800003333D33F0000E93F0000D23FD6
:1035A0002DE9F0414F1E00EBC7010446D1E90001AF
:1035B00015461E4637F006020DD02A46334601F066
:1035C00005FB7F1E04EBC703D3E9002300F0EAFFED
:1035D00037F00602F1D1022F25D0042F13D0062F89
:1035E00018BFBDE8F0812A46334601F0EFFAD4E96E
:1035F0000A2300F0D7FF2A46334601F0E7FAD4E960
:10360000082300F0CFFF2A46334601F0DFFAD4E961
:10361000062300F0C7FF2A46334601F0D7FAD4E963
:10362000042300F0BFFF2A46334601F0CFFAD4E965
:10363000022300F0B7FF2A46334601F0C7FAD4E967
:103640000023BDE8F04100F0ADBF00002DE9FF4DC3
:10365000054621F0004084B00C46B0F1795F0BDAEA
:103660002846FFF747FD042808BF00F077F82846F2
:1036700008B02146BDE8F08D2A460B46104601F001
:10368000A5FA06460F462A46234601F09FFA8046D1
:1036900026488A4632463B4605217844FFF780FF9C
:1036A00083461098029160B3214A224B404651460E
:1036B00001F08CFACDE900015A4640465146029B82
:1036C00001F084FA82468846DDE906014FF0FF32B8
:1036D00001F0C8FE5246434601F0B8FB32463B4675
:1036E00001F074FADDE9062301F0B0FBDDE9002307
:1036F00001F0ACFB08B02A462346BDE8F04D01F0CE
:1037000099BB0B465A463046394601F05FFA084AE3
:10371000084B00F047FF4246534601F057FA08B005
:103720002A462346BDE8F04D00F03CBFA24700000A
:10373000495555555555C5BF0022134610460149F8
:1037400000F0ECBF0000F03F012201F08BBE002230
:1037500013461046114600F0E1BF0000024A002067
:10376000110701F07FBE000001FDFFFF30380A287D
:1037700001D20120704700207047000000B587B0DB
:1037800001214802FEF784FB12208DF81800012069
:103790008DF819008DF81A008DF81B0006A8FEF7A9
:1037A00081FA002001908DF8080001208DF80900B1
:1037B0004FF4602003900020049001208DF8140045
:1037C00001A91F48FDF756FE0723012206211C48C8
:1037D000FDF778FE40F60C1240F6AA211848FDF7D6
:1037E000F7FD06211648FDF7EBFD16491448FDF7D5
:1037F000DDFD01224FF4A0711148FDF72FFE0121DC
:103800000F48FDF7EDFD0E48FDF7B8FE00BF0C4870
:10381000FDF71AFE0028FAD10948FDF7BFFE00BFE8
:103820000748FDF7E8FD0028FAD101210448FDF71B
:10383000D7FD01210248FDF7A6FE07B000BD00003C
:10384000002401400002800000B585B001218802FB
:10385000FEF71EFB6846FDF7A6FE002000908DF8DF
:1038600004008DF805004FF46020029000200390C2
:1038700001208DF8100069460D48FDF7FBFD012180
:103880000B48FDF7ADFD0A48FDF778FE00BF08487C
:10389000FDF7DAFD0028FAD10548FDF77FFE00BFED
:1038A0000348FDF7A8FD0028FAD105B000BD0000CF
:1038B0000028014010B5044603230122214609488F
:1038C000FDF700FE01210748FDF75DFE00BF022164
:1038D0000448FDF79EFD0028F9D00248FDF795FD4C
:1038E00010BD000000280140104A12684FF47A739E
:1038F000B2FBF3F202FB00F10D4A126842F0807253
:103900000B4B1A6000220B4B5A601A46126842F0A9
:1039100001021A6000BF074A52688A42FBD3054A77
:10392000126822F00102034B1A60704780000020E9
:10393000FCED00E0001000E01CB501A8FEF76CF8FB
:103940001C208DF807008001ADF8040001208DF8DF
:10395000060001A90A48FDF7C7FF6846FEF75CF8B4
:103960004FF46040ADF800001C208DF803000120EA
:103970008DF8020069460348FDF7B6FF1CBD000044
:1039800000080140000C01402DE9F04DC84A002418
:1039900090B0914205DA21F00043934201D805D15D
:1039A00020B110B0BDE8F04DFFF7CEBEB1F5801FDD
:1039B0001BDA53EA000209D0002911DA0120FCF7D2
:1039C00003FD10B0BDE8F04DFFF7C1BE0220FCF7CB
:1039D000FBFCFFF7B1FE10B081F00041BDE8F08DB7
:1039E0006FF03504362201F03DFD04EB2152C1F3A6
:1039F0001308B049A2F2FF33414401F4801282F06F
:103A00007F6103EB225281F04051009241EA0801AC
:103A10000022A94B01F01AFA044608F10200A74E51
:103A2000C0F313000D467E44032867D2D6E9002375
:103A3000204600F0CBFF1ED10098002802BFD6E937
:103A4000000110B0BDE8F08D01F059F807460C46B2
:103A50009B4A9C4B01F0BAF806460D469A4A9B4B8E
:103A60003846214601F0B2F810B032462B46BDE888
:103A7000F04D00F097BD4FF05532954B204629464A
:103A800001F0A4F80022934B01F0D4F906460F464A
:103A900022462B461046194601F098F832463B461E
:103AA00001F094F8064600980F46F0B101F027F8AF
:103AB00080468A46824A834B01F088F832463B466C
:103AC00001F0B8F922462B4601F0C0F905460C4634
:103AD0007D4A7E4B4046514601F078F810B02A46A8
:103AE0002346BDE8F04D01F0B1B90B4610B03246A7
:103AF00020462946BDE8F04D01F0A8B900224FF05C
:103B00008043204600F04EFD02460B4620462946E3
:103B100000F004FE06460F46009800F0F0FFCDE9E5
:103B2000040132463B461046394601F04FF80C90EE
:103B300069480C9A4044019009910B46104601F0E7
:103B400045F88246024665488B46C8F151080B4647
:103B500008F5D72803217844FFF722FD52465B463B
:103B600001F034F80A905E480D9152465B460421FC
:103B70007844FFF715FD099B0C9A01F027F884465D
:103B800001980D9B40EA080860460A9A00F00AFD79
:103B900083460891B8F1000F4EDD4FF0FF3220460A
:103BA000294601F05FFC22462B4601F00FF88046C3
:103BB00000988A4660B3DDE90401414A414B01F0B7
:103BC00005F8099100905A4640465146089B00F07E
:103BD000E9FC32463B4600F0F9FF099B009A00F0F1
:103BE000E1FC4246534601F025F922462B4601F0FE
:103BF0002DF904460D46DDE90401334A334B00F04C
:103C0000E5FF10B022462B46BDE8F04D01F01EB98D
:103C10005A464046089B00F0C5FC32463B4600F041
:103C2000D5FF4246534601F005F910B022462B4617
:103C3000BDE8F04D01F0FEB8009840B3DDE90401A5
:103C40001F4A204B00F0C2FF80468A465A46204653
:103C50002946089B01F0FAF832463B4600F0B6FFD1
:103C60004246534601F0F2F822462B4601F0EEF8A8
:103C700004460D46DDE90401134A144B00F0A6FF8B
:103C800010B022462B46BDE8F04D01F0DFB80B46E0
:103C90005A462046294601F0D9F832463B4600F004
:103CA00095FF10B022462B46BDE8F04D01F0C2B89A
:103CB0000000F07F645F09000000F03F4643000011
:103CC000763C7935EF39EA3D0000E0FE422EE63FD2
:103CD0005555D53F0000E03F86EBF9FFAE410000AF
:103CE000AC410000FEF79EFA6420FFF7FDFD1021B5
:103CF0001120FEF791FA01223B493CA0FEF7A4FBFC
:103D0000FEF7B8FB6420FFF7EFFDFFF79DFDFFF71F
:103D100035FDFDF757FF0020FEF754FDFEF756F87E
:103D20006420FFF7E1FD5DE0FEF7E0FFFFF794F8A8
:103D300020B1C820FFF7D8FDFEF7CCFCFFF7B2F8A2
:103D4000A0B12C48007858B100202A490870012100
:103D50002948FDF75DFE40F2DC50FFF7C5FD05E0A8
:103D60009620FFF7C1FD0120FEF72CFD802123489E
:103D7000FDF745FE18BB0A20FFF7B6FD80211F485E
:103D8000FDF73DFED8B94FF400411D48FDF737FE61
:103D900058B10120FEF716FD1A48007880F00100A6
:103DA00018490870FEF796FC09E01648007880F084
:103DB0000100144908704FF4FA70FFF795FD4FF4B5
:103DC00000410F48FDF71BFE08B1FEF791FB4FF4D1
:103DD00080510A48FDF713FE08B9FDF79BFF00204C
:103DE000FFF778F8A0E700005800002048656C6CE9
:103DF0006F2100001500002000080140000C014068
:103E0000001001403C00002000B5254B21F000428D
:103E100087B09A4203DC0022134600922BE0214B2C
:103E20009A4208D140B94FF00100FCF7CDFAFFF7F4
:103E30008EFC07B000BD03DBFFF786FC07B000BDBA
:103E400002AAFFF76BF910F003014FF001000DD04B
:103E5000012914D002291AD00DF1080C9CE80F009A
:103E6000FFF720FB07B081F0004100BD0DF1080C09
:103E700000909CE80F00FFF7E9FB07B000BD0DF1D3
:103E8000080C9CE80F00FFF70DFB07B000BD0DF11B
:103E9000080C00909CE80F00FFF7D8FBE2E7000059
:103EA000FB21E93F0000F07F00B58BB001210846FF
:103EB000FDF7CEFF6846FDF7FAFC1E4800901E484D
:103EC0000190102002901D4800880390002004906B
:103ED00080200590400006908000079020200890E8
:103EE0000002099069461648FDF7C3FC01211448F9
:103EF000FDF7AAFC012251020E483438FEF781FD7D
:103F0000012202210E48FDF7ABFC0C2000280DDB3E
:103F100000BF00BF00F01F02012191404209920042
:103F200002F1E022C2F8001100BF00BF00BF0BB0D9
:103F300000BD0000342C0140520100201000002080
:103F40001C00024000B58BB06846FDF7B0FC12487B
:103F500000901248019010200290114800880390B0
:103F6000002004908020059040000690800007907B
:103F7000202008900002099069460A48FDF779FC64
:103F800001210848FDF760FC0122910202483838FF
:103F9000FEF737FD0BB000BD382C01404E05002068
:103FA000100000203000024000B58BB06846FDF7DD
:103FB0007EFC124800901248019010200290114897
:103FC0000088039000200490802005904000069017
:103FD00080000790202008900002099069460A4856
:103FE000FDF747FC01210848FDF72EFC0122D10214
:103FF00002483C38FEF705FD0BB000BD3C2C0140EB
:104000004A090020100000206C0002402DE9F04712
:1040100092B072480068282802DA714C714D12E0A3
:104020006E4800686E2803DA4FF033346E4D0AE0B4
:104030006A48006800F063FD064600226B4B00F002
:104040006DFB04460D460022694B2046294600F0D0
:10405000BBFE01D20024664D664A674B20462946C6
:1040600000F078FD48D222462B460020634900F03C
:10407000ADFD0646624A634B00F0A8FD04460D46BE
:104080004FF0000A33E06048008800F04FFDCDE9B2
:104090000A01504600F04AFD5C4A5D4BCDE906013D
:1040A00000F094FDCDE90801DDE90A2300F036FBBC
:1040B0008046584A584B00F089FD0646FFF7A4FE9B
:1040C0000022564BCDE90C0100F06CFA22462B463B
:1040D000CDE90E0100F07AFDCDE9100100F0E2FC1F
:1040E0004F4901F80A000AF101001FFA80FA464818
:1040F00000888245C7DB6DE000244A4DA24665E09A
:104100004148008800F012FDCDE90201504600F060
:104110000DFD06463D4A3E4B00F058FD804600220C
:10412000414B00F053FDCDE90001DDE9022300F031
:10413000F5FA384A384BCDE9040100F047FDCDE9E6
:104140000601FFF761FE394A394BCDE9080100F05D
:104150003DFDCDE90C012C48008800F0E7FCCDE9DD
:104160000601504600F0E2FC284A294BCDE9020145
:1041700000F02CFDCDE90401DDE9062300F0CEFAC4
:104180000646244A244B00F021FD8046FFF73CFE02
:104190001E4A5242274BCDE9080100F003FACDE94F
:1041A0000A01DDE90C2300F0FDF922462B46CDE99A
:1041B0000E0100F00BFDCDE9100100F073FC184971
:1041C00001F80A000AF101001FFA80FA0E4800887F
:1041D000824595DB12B0BDE8F0870000200000208A
:1041E0007B14AE47E17AB43F3333C33F007087405E
:1041F0000000E03FCDCCCCCCCCCCDC3F00405F40DD
:104200009A9999999999F13F10000020295C8FC2E1
:10421000F52800406E861BF0F92109400000F03FB0
:10422000460D002000F85140000008400AD7A37056
:104230003D0AC73F0AD7EB3F00B585B0012188058D
:10424000FDF716FE01210820FDF722FE154800901B
:104250000020ADF804004BF6FF70ADF80600152005
:10426000ADF808000020ADF80A004FF48040ADF82A
:104270000C0069460C48FDF72FFC4FF44060ADF888
:1042800010001C208DF8130003208DF8120004A9E3
:104290000648FDF729FB01210348FDF710FC05B096
:1042A00000BD0000801A060000580040000C0140CC
:1042B0002DE9F04104460D4616461F46208840F47D
:1042C0008070208044F620602349086008E022487E
:1042D0000068401E2049086010B90120BDE8F08147
:1042E000A08A00F001000028F1D01FB1208840F41E
:1042F00080602080A6B925F00100208244F620606D
:104300001549086007E014480068401E124908601B
:1043100008B90120E2E7A08A00F002000028F2D0EC
:10432000012E15D145F00100208244F620600A4993
:10433000086007E008480068401E0749086008B99F
:104340000120CBE705492046FDF7A4FB0028F1D06A
:10435000208B0020C2E7000068000020020003005C
:10436000014644F620600D4A106007E00B480068E3
:10437000401E0A4A106008B901207047888A00F080
:1043800080000028F2D0888A00F004000028EDD0D8
:10439000088840F4007008800020EEE768000020E4
:1043A0002DE9F04106460F4614461D4600231A46E5
:1043B00039463046FFF77CFF2146304600F00AF8C8
:1043C0002946304600F006F83046FFF7C9FFBDE841
:1043D000F081000044F62062084B1A6004E0074AAE
:1043E0001268521E054B1A60828A02F080021AB9C6
:1043F000024A1268002AF2D1018270476800002048
:104400002DE9F0470746884615461E46DDF8209000
:1044100000231A4641463846FFF74AFF29463846E8
:10442000FFF7D8FF002405E0315D3846FFF7D2FFE3
:10443000601CC4B24C45F7DB3846FFF791FFBDE87E
:10444000F087000000B58BB008A8FEF745FC2F48A8
:10445000008880B2ADF820000020ADF822007D2059
:10446000ADF824000020ADF8260008A92848FEF782
:10447000E1FB6020ADF810000120ADF8120004202F
:10448000ADF814000820ADF81A000220ADF81800AD
:1044900004A91F48FEF7BEFA08211D48FEF706FBD7
:1044A00004A91B48FEF70CFB08211948FEF75AFB2C
:1044B00004A91748FEF764FB08211548FEF7B0FB76
:1044C00001211348FEF782FA01211148FEF78AFA0A
:1044D0004FF40060ADF800004010ADF8020080100D
:1044E000ADF804008020ADF806000020ADF808000B
:1044F0004FF40050ADF80A004000ADF80C006946DA
:104500000348FEF753FA0BB000BD00000C0000207A
:10451000002C014010B500290AD00878002807D0E7
:1045200005487844FCF7B6FA002801D0002010BDF9
:104530000248784410BD0000FA390000F23900004A
:1045400021F00042A2F16052B2F5801F01F0004359
:1045500028BFD2F17F6C0BD95FEA001C43EAC2028C
:1045600042EB507018BF704728BF20F00100704721
:10457000B2F5801FBCBF184670474FEA410C1CF5CE
:10458000001F02D2084600F034BF70B500F0C8FB2F
:1045900000000089FFF7F6BF4FF00040A0F5800053
:1045A0007047000010B591EA030F48BF83F0004345
:1045B00000F15484841A71EB030C05D2121943EBF9
:1045C0000C03001B61EB0C01DFF824E14FEA1154EE
:1045D000A4EB135C1EEA430F18BF9EEA445F73D03E
:1045E00023EA0E03DCF1200E21EA045143F4801388
:1045F00032D322FA0CFE10EB0E0023FA0CFE41EB34
:104600000E01CCF1200E03FA0EFE10EB0E0051F15C
:104610000001B1F5801FCCF1200E32D201EB045124
:1046200012FA0EF2BDE8104058BF7047401C38BF68
:104630005FEA420218BF7047002814BF20F0010053
:1046400041F100014FEA410313F5001F38BF7047E5
:10465000A1F1C04100F0B2BB012A43EB0302ACF16F
:10466000200CDCF11F0E32BF4FF0000E23FA0CF3CA
:1046700010EB030041EB0451B4EB115FD0D0A1EB80
:10468000045101F5801149085FEA300001EB045143
:104690000ED350F1000038BF12FA0EFE08D1BDE86B
:1046A0001040C9E7401C38BF5FEA4202CAD1C3E7E5
:1046B000BDE810404FEA410313F5001F38BF7047B3
:1046C000A1F1C04100F07ABB9EEA445F08D011EA34
:1046D0005E0FBDE8104004BF01F0004100207047AC
:1046E000BDE8104070B500F01BFB00BF64FBBE3E90
:1046F0000000E0FF02494FF0000000F081BE00BF63
:104700000000F87F491058BFC1F140415B1058BF0D
:10471000C3F140438B42EFF3008070472DE9C04165
:1047200030B4DFF8A0C23CEA111418BF3CEA1314FD
:1047300000F0EC8081EA03051CEA111444EAD57408
:1047400018BF1CEA131500F0C780A4EB05044FF056
:10475000004545EAC12145EAC32341EA505143EAF5
:10476000525304F17F74994204F500344FEAC0209B
:104770004FEAC22208BF904200F09C804FEA1365C6
:104780000FF24016765D4FEA134506FB05F7C7F1B9
:10479000807706FB07F74FEAD737A7FB0368764217
:1047A000C8F58038A7FB06CE38BFA8F1010807FB83
:1047B00008E64FF0000EA6FB028CE6FB03CEDCF110
:1047C000000CCEF1004E38BFAEF1010EA6FB0C5826
:1047D0004FF000074FF00005E6FB0E87A1FB08C66F
:1047E000A0FB07CE16EB0E0645F10005E1FB0765C1
:1047F00015F1E04E7EBFA4F580345FEA46066D41B8
:1048000016F1800745F100054FEA17274FEA0666C3
:1048100047EA0567A6F1DE46B6F1805F4FEA152547
:104820001FD9384624F0010C05EBC471BCF1FE6FB2
:1048300001EB0C1102D8F0BCBDE8008124425CBF42
:1048400001F5801E9EEAC47F02D4F0BCBDE8008161
:10485000244238D4F0BCA1F1C041BDE8004100F0D1
:10486000ADBA4FEAD22242EA43524FEAD323A7FB22
:1048700002864FEAD02040EA415007FB03661EEA59
:104880000E0F4FEAD12105FB026658BFA6EB00567A
:10489000B6EB00564FEA520E4EEAC37E18EB0E0EF0
:1048A00056EB530EBDD518EB02085E417F1C55F147
:1048B0000005B6E74FF480154FF000074FF00006F3
:1048C0004FF00008ADE7F0BC4FF0000001F1C0412F
:1048D00001F00041BDE8008111EA0C1F0CEA13153C
:1048E00000D00CE013EA0C1F00F025804FF0000010
:1048F000F0BC81EA030101F00041BDE80081F0BC99
:10490000BDE8004181EA030100F058BAF0BCBDE8FF
:10491000004170B500F004FA097EFC3E00F007B8D3
:1049200081EA03014FF0000001F00041704781EA85
:10493000030100F043BAF0BCBDE800414FF00000B5
:1049400021497047FFFDFBF9F7F5F4F2F0EEEDEBCE
:10495000E9E8E6E4E3E1E0DEDDDBDAD8D7D5D4D37D
:10496000D1D0CFCDCCCBCAC8C7C6C5C4C2C1C0BFC9
:10497000BEBDBCBBBAB9B8B7B6B5B4B3B2B1B0AFCF
:10498000AEADACABAAA9A8A8A7A6A5A4A3A3A2A1B3
:10499000A09F9F9E9D9C9C9B9A999998979796956E
:1049A00095949393929191908F8F8E8E8D8C8C8B0A
:1049B0008B8A898988888787868585848483838292
:1049C000828181800000FF070000F87F51EA030C1C
:1049D00017D41CF5801F58BFBCF5801F00F106805E
:1049E000994218BF704708BF9042704707D711F52A
:1049F000801F58BF13F5801F19D499427047894210
:104A000070471CF5801F08D5BCF5801FF7D58B4279
:104A100018BF704708BF824270474FF4001C1CEB60
:104A2000410F38BF1CEB430F01D28B42704770B56A
:104A300000F076F9922449004FF000514FF0805376
:104A4000FFF760BE4FEA41034FEA5353A3F580637B
:104A5000D3F11E03C8BFD3F1210C0CDD4FF000428F
:104A600042EAC12242EA505232FA03FC8CEAE17C6B
:104A7000ACEBE1707047102BC4BF0020704703F50A
:104A8000787CBCF1FF3F04D06FF0004282EA210045
:104A9000704770B500F044F94992248000207047B7
:104AA000F2E700004FEA1153A3F58063D3F11E0330
:104AB000A8BFD3F1200C08DB4FF0004242EAC1222C
:104AC00052EA505232FA03F0704709420BD4102BCD
:104AD000C4BF0020704703F5787CBCF1FF3F05D0D0
:104AE0004FF0FF3070474FF00000704770B500F096
:104AF00017F900BF4992248000207047F0E710F0BA
:104B0000004248BF4042B0FA80F310FA03F10AD0E5
:104B1000C3F11D0303F580634FEA415002EB0352DA
:104B200002EBD12170474FF000007047B0FA80F3DC
:104B300010FA03F10AD0C3F11D0303F580634FEAB5
:104B400041504FEA035202EBD12170474FF0000071
:104B50007047000051EA030C17D41CF5801F58BFA2
:104B6000BCF5801F00F10680994218BF704708BF4E
:104B70009042704707D711F5801F58BF13F5801F6B
:104B800019D499427047894270471CF5801F08D597
:104B9000BCF5801FF7D58B4218BF704708BF824213
:104BA00070474FF4001C1CEB410F38BF1CEB430F48
:104BB00001D28B42704770B500F0B2F892244900E0
:104BC0004FF000514FF08053FFF79CBDDFF848C114
:104BD00070B51CEA111E1EBF1CEA13159EEA0C0FCD
:104BE00095EA0C0F00F06F8081EA030423EA4C136E
:104BF0004EEAD47E21EA4C1141F4801143F4801333
:104C0000AE44A1FB024CA0FB0365AEF17F7E3619DA
:104C100055EB0C05A1FB034C4CF10003A0FB021C5F
:104C200016EB0C06654153F10003094218BF46F02C
:104C3000010613F4007F0BD14FEA03314FEA053030
:104C4000340341EA155140EA16506FF003020AE0BE
:104C50004FEAC3214FEAC520F40241EA555140EA28
:104C600056506FF0020202EB2E4201EB025585EA2C
:104C7000CE710AD05FEA440C18BF24F0004450F112
:104C8000000041F1000120EAD47040F2FE7C624550
:104C900000D270BDA84214BF4FF080444FF0404492
:104CA000002E08BF0024BEF1806FA8BFA1F1C04153
:104CB000BDE8704080F282804FF0000001F1C041F9
:104CC00001F0004170479EEA0C0F0CEA131518BF63
:104CD00095EA0C0F06D04FF0000081EA030E0EF0AB
:104CE000004170BD00F01CF88900013E00F007B8DB
:104CF00000F009B84FEA430C5FEA5C5C08D081EA37
:104D0000030100F05BB84FEA410C5FEA5C5CF6D14E
:104D10004FF00000014970470000FF070000F87FD6
:104D20000EF1020E2EF0030E5EF8046B364205D42F
:104D3000012A43EB030515F5001F12D8012841EBAA
:104D4000010C1CF5001F0CD80ED14FEAD17C15F5D3
:104D5000001F0CEB4C0C0CF1020C08BF4CEBD37C8D
:104D600004E04FF0080C01E04FEAD37C0CEB4C055B
:104D700026FA05F606F00706B6F1040C06D20EEB8D
:104D8000860CBDE870404CF0010C6047DFE80CF089
:104D9000090B02024FF000414FF00000A1F5002185
:104DA00070BD19461046012851EB010418BFD4F517
:104DB000001484BF002001F0004170BD0808A0F578
:104DC00000114FEA3101704753EA010C17D41CF56A
:104DD000801F58BFBCF5801F00F106808B4218BFB2
:104DE000704708BF8242704707D713F5801F58BF2E
:104DF00011F5801F19D48B4270479B4270471CF5F8
:104E0000801F08D5BCF5801FF7D5994218BF7047A1
:104E100008BF904270474FF4001C1CEB430F38BF93
:104E20001CEB410F01D2994270470FB40CBC03BC7C
:104E3000FFF7C1BE91EA030F10B581F000413FF5C5
:104E4000B9AB83F0004300F009B8000010B591EA57
:104E5000030F48BF83F000433FF5ACAB841A71EBFE
:104E6000030C07D212198CF0004C43EB0C03001B0F
:104E700061EB0C01DFF8A4E14FEA1154A4EB135CE1
:104E80001EEA430F18BF9EEA445F00F0B08023EA99
:104E90006E03524221EA0451C3EB6E0338BF5B1E1E
:104EA000DCF1200E25D322FA0CFE10EB0E0043FAA3
:104EB0000CFE41EB0E01CCF1200E03FA0EFE10EBBE
:104EC0000E0051F10001CCF1200E29D412FA0EF29D
:104ED00001EB0451BDE8104058BF7047401C1CBF97
:104EE000B2F1004F704700280CBF491C20F00100B0
:104EF000704712EB020E43EB030218BF4FF0010E96
:104F00004EEA4202ACF1200CDCF11E0E54D943FAF9
:104F10000CFE10EB0E0051F1FF31CCF11E0ED5D579
:104F20000EF1010E12FA0EFE404141EB010101EBC0
:104F3000445C5FEA5C5C10D910EBDE7001EB04515D
:104F400038BFBEF1004FBDE8104018BF70470028C1
:104F50000CBF491C20F00100704730D24FEAD42C1E
:104F600011F5001124F400641BD0B1FA81F20B3A60
:104F7000A41AA41ED2F12003914030FA03F319437E
:104F8000904001EBCC71002C01EB0451BDE81040C6
:104F9000A8BF704701F1C0414FF0000001F000418F
:104FA0007047B0FA80F310FA03F100D110BDE41A93
:104FB000173C4805C90AE4E701EB045110BD49104C
:104FC00001EB0451BDE810404FEA300002E04FF021
:104FD000000170474A0008BF0042F8D0B2F5001F38
:104FE00028BF704701F000414FF0000070479EEA73
:104FF000445F07D011EA5E0FBDE8104004BF0021F6
:1050000000207047BDE8104070B5FFF789FE00BF73
:1050100040DFF63E83F00041104670470000E0FF9D
:1050200043004FEAD30C4FEA3C0C43401FBF4007FC
:105030000CF1605113F0FE4F70471CF0006F03D16C
:1050400000200CF0004170470CF0004343EA507020
:1050500010B540EACC0000F086F900BF00000092D5
:105060004FEA0001FFF7AABE4FF000414FF00000E9
:10507000A1F50021704700004FF47F0C1CEAD0120C
:105080001EBF1CEAD11392EA0C0F93EA0C0F00F03A
:10509000858090EA010F48BF42F4807240F4000C12
:1050A00041F400002CF07F4120F07F4000B58142A8
:1050B000A2EB03020FF2081CACEB504EC0F1000053
:1050C0009EF800E04FEA4E0E00FB0EFC38BF490090
:1050D0004FEA2C1C02F5FA020CFB0EF34FEACE1E2F
:1050E0004FEA112C4FEAC1210EEB635E42EB2242E4
:1050F0000EFB0CFC4FEA1C5300FB03114FEA112C72
:105100004FEA01310EFB0CFC4FEADC4C00FB0C11AA
:10511000C14228BF09184CEB03335DF804EB10EBD8
:10512000410143EBC250B2F57C0F38BF704729D51F
:1051300012F0F00F1CBF00F1C04000F000407047BB
:10514000008182838485868788898B8C8D8E8F9160
:105150009293959697999A9C9D9FA0A2A3A5A7A884
:10516000AAACAEB0B2B3B5B7B9BCBEC0C2C5C7C9B0
:10517000CCCED1D4D7D9DCDFE2E6E9ECF0F3F7FA14
:10518000FE0000004FEA400C0CF1807CBCF17E4F29
:1051900028BF7047B0F1C04000F02BB990EA010F72
:1051A0000CEAD11348BF42F48072624538BF6345B0
:1051B00007D213F47F0F16D080EA010000F0004000
:1051C000704710B500F0CFF8097EFC3E00F005B83E
:1051D00080EA010000F00040704780EA010000F022
:1051E000004000F006B912F47F0F04BF0248704778
:1051F00080EA010000F0FDB80000C07F41000B0E06
:10520000D3F19E0208D950F400034FEA032323FA96
:1052100002F048BF4042704710B500F0A4F800BF4C
:1052200049922480002070476FF0004282EA2000FB
:105230007047000010F0004148BF4042B0FA80F3D0
:1052400010FA03F2C3F19D030BD051EAC35101EBF5
:105250001220530638BF704700F1010008BF20F04C
:10526000010070474FF47F0C1CEAD0121EBF1CEAED
:10527000D11392EA0C0F93EA0C0F00F0478090EAEA
:10528000010F48BF42F480724FF0004C4CEA0020FE
:105290004CEA012102EB0302A0FB0113A2F500027C
:1052A000002918BF43F001035B0028BF4FEA330316
:1052B00042EB22425FEA132C4CEBC2502EBFBCEBF8
:1052C000436FB2F57C0F70474FEA036CBCF1004F9F
:1052D00008BF20F00100B2F57C0F38BF70470BD536
:1052E00082F0FF0212F5803FC8BF704700F1C04056
:1052F000D8BF00F00040704700F5000C5FEA4C0C8E
:1053000048BF7047B0F1C04000F073B890EA010F99
:105310000CEAD11348BF42F48072624538BF63453E
:1053200004D280EA010000F00040704710B500F0A0
:105330001AF800BF8900013E00F007B800F009B874
:105340005FEA410C5FEA1C6C08D080EA010000F0C3
:1053500050B85FEA400C5FEA1C6CF6D14FF0004099
:10536000A0F5800070470EF1020E2EF0030E5EF8DD
:10537000044B244204D44FEA4102B2F17F4F11D8CA
:105380004FEA4003B3F17F4F0CD80ED14FEAD07CE7
:10539000B2F17F4F0CEB4C0C0CF1020C08BF4CEB44
:1053A000D17C04E04FF0080C01E04FEAD17C0CEB1B
:1053B0004C0324FA03F404F00704B4F1040C06D2FD
:1053C0000EEB840CBDE810404CF0010C6047DFE8A8
:1053D0000CF0070802024FF00040A0F5800010BD5D
:1053E0000846420018BFD2F1807288BF00F000402A
:1053F00010BDFF2141EAD050C0057047FBF7C3B88C
:105400000CF00F03092B08BF082000F059800A2B6D
:105410000BD0082B18BF704708BF1CF0400F0AD0F4
:105420004FF000004FF0000170471CF0400F18BF14
:105430004FF0004070471CF0100F08D020F0704370
:1054400000F07F4242EAD3014FEA4370704700F018
:10545000604021F07F4242EA000201F07F4040EAD2
:10546000727070474FF0FF0C4CF4E06C1CEA115363
:105470001CBF9CEA030C9445C2BFDA4201EB025107
:105480007047002B0DD0BCF1000F0FD0002A01F0A7
:105490000041A4BF41F0E04141F07F614FF00000C6
:1054A000704701F000414FF00000704750EA0133AF
:1054B0004FF09B0C18BF4CF0806C7FF41BA9704719
:1054C0001CF4801F11D01CF4E02F03D06FEACC3104
:1054D000490070474FF04050EFF3008222F07042D5
:1054E00042EA000282F3008870474FF000007047E4
:1054F00000000000000000000000000000000000AC
:10550000000000000010001000100010001000103B
:105510000000001000000000002800280028000003
:105520000000000000000000000000000024002433
:10553000007C00240048007C004800480000000077
:105540000038005400500038001400540054003853
:1055500000100000002000540058003000280054C3
:1055600000140008000000000010002800280010AF
:105570000034004800480034000000000010001013
:10558000001000000000000000000000000000000B
:105590000008001000200020002000200020002033
:1055A0000010000800200010000800080008000893
:1055B000000800080010002000100038001000282B
:1055C00000000000000000000000000000000000DB
:1055D00000100010007C001000100000000000000F
:1055E00000000000000000000000000000000010AB
:1055F0000010001000000000000000000000003853
:10560000000000000000000000000000000000009A
:10561000000000000000001000000000000800086A
:1056200000100010001000100020002000000000FA
:105630000038004400440054004400440044003852
:10564000000000000010003000500010001000109A
:105650000010001000000000003800440044000466
:10566000000800100020007C00000000003800440A
:10567000000400180004000400440038000000008A
:1056800000080018002800280048007C00080008D6
:1056900000000000007C004000400078000400048E
:1056A000004400380000000000380044004000784A
:1056B000004400440044003800000000007C000466
:1056C0000008001000100020002000200000000052
:1056D00000380044004400380044004400440038CE
:1056E000000000000038004400440044003C000476
:1056F000004400380000000000000000001000001E
:105700000000000000000010000000000000000089
:105710000000001000000000000000100010001049
:1057200000000000000C003000400030000C0000C1
:1057300000000000000000000000007C0000007C71
:1057400000000000000000000000000000600018E1
:105750000004001800600000000000000038004451
:1057600000040008001000100000001000000000FD
:1057700000380044004C0054005C004000400038F9
:105780000000000000100028002800280028007CED
:105790000044004400000000007800440044007809
:1057A0000044004400440078000000000038004439
:1057B000004000400040004000440038000000006D
:1057C0000070004800440044004400440048007059
:1057D00000000000007C00400040007C00400040D1
:1057E0000040007C00000000007C00400040007889
:1057F000004000400040004000000000003800442D
:1058000000400040005C00440044003800000000FC
:10581000004400440044007C004400440044004430
:1058200000000000003800100010001000100010F0
:105830000010003800000000000400040004000410
:105840000004000400440038000000000044004848
:105850000050006000500048004800440000000074
:105860000040004000400040004000400040007CFC
:10587000000000000044006C006C00540044004430
:105880000044004400000000004400640064005430
:105890000054004C004C004400000000003800445C
:1058A000004400440044004400440038000000006C
:1058B000007800440044004400780040004000406C
:1058C000000000000038004400440044004400444C
:1058D00000540038000400000078004400440044F4
:1058E00000780048004800440000000000380044F0
:1058F00000400030000800040044003800000000B0
:10590000007C0010001000100010001000100010AB
:1059100000000000004400440044004400440044EF
:105920000044003800000000004400440044002807
:10593000002800280010001000000000004400446F
:10594000005400540054006C00280028000000009F
:1059500000440028002800100010002800280044FF
:10596000000000000044004400280028001000103F
:105970000010001000000000007C0004000800106F
:10598000001000200040007C000000000018001003
:10599000001000100010001000100010001000187F
:1059A0000020002000100010001000100008000867
:1059B0000000000000300010001000100010001067
:1059C00000100010001000300010002800280044D3
:1059D00000000000000000000000000000000000C7
:1059E000000000000000000000000000000000FEB9
:1059F0000020001000000000000000000000000077
:105A0000000000000000000000380044003C00449A
:105A1000004C0034000000000040004000580064CA
:105A20000044004400640058000000000000000032
:105A300000380044004000400044003800000000EE
:105A4000000400040034004C00440044004C0034C6
:105A5000000000000000000000380044007C00400E
:105A60000044003800000000000C0010007C001012
:105A700000100010001000100000000000000000E6
:105A80000034004C00440044004C00340004007812
:105A900000400040005800640044004400440044BA
:105AA0000000000000100000007000100010001046
:105AB0000010001000000000001000000070001036
:105AC0000010001000100010001000E00040004026
:105AD00000480050006000500048004400000000F2
